{
  "contractName": "BasicNFTTokenMarket",
  "abi": [
    {
      "constant": true,
      "inputs": [
        {
          "name": "tokenId",
          "type": "uint256"
        }
      ],
      "name": "tokenExists",
      "outputs": [
        {
          "name": "",
          "type": "bool"
        }
      ],
      "payable": false,
      "stateMutability": "view",
      "type": "function"
    },
    {
      "constant": true,
      "inputs": [
        {
          "name": "",
          "type": "address"
        },
        {
          "name": "",
          "type": "uint256"
        }
      ],
      "name": "bids",
      "outputs": [
        {
          "name": "hasBid",
          "type": "bool"
        },
        {
          "name": "tokenId",
          "type": "uint256"
        },
        {
          "name": "bidder",
          "type": "address"
        },
        {
          "name": "value",
          "type": "uint256"
        }
      ],
      "payable": false,
      "stateMutability": "view",
      "type": "function"
    },
    {
      "constant": false,
      "inputs": [
        {
          "name": "tokenId",
          "type": "uint256"
        },
        {
          "name": "minSalePriceInWei",
          "type": "uint256"
        },
        {
          "name": "toAddress",
          "type": "address"
        }
      ],
      "name": "offerSupplyForSaleToAddress",
      "outputs": [],
      "payable": false,
      "stateMutability": "nonpayable",
      "type": "function"
    },
    {
      "constant": false,
      "inputs": [],
      "name": "withdrawPendingBalance",
      "outputs": [],
      "payable": false,
      "stateMutability": "nonpayable",
      "type": "function"
    },
    {
      "constant": true,
      "inputs": [],
      "name": "tokenContractExists",
      "outputs": [
        {
          "name": "",
          "type": "bool"
        }
      ],
      "payable": false,
      "stateMutability": "view",
      "type": "function"
    },
    {
      "constant": false,
      "inputs": [
        {
          "name": "tokenId",
          "type": "uint256"
        },
        {
          "name": "minPrice",
          "type": "uint256"
        }
      ],
      "name": "acceptBidForSupply",
      "outputs": [],
      "payable": false,
      "stateMutability": "nonpayable",
      "type": "function"
    },
    {
      "constant": true,
      "inputs": [],
      "name": "tokenContract",
      "outputs": [
        {
          "name": "",
          "type": "address"
        }
      ],
      "payable": false,
      "stateMutability": "view",
      "type": "function"
    },
    {
      "constant": true,
      "inputs": [],
      "name": "isNFTMarket",
      "outputs": [
        {
          "name": "",
          "type": "bool"
        }
      ],
      "payable": false,
      "stateMutability": "view",
      "type": "function"
    },
    {
      "constant": false,
      "inputs": [
        {
          "name": "tokenId",
          "type": "uint256"
        },
        {
          "name": "minSalePriceInWei",
          "type": "uint256"
        }
      ],
      "name": "offerSupplyForSale",
      "outputs": [],
      "payable": false,
      "stateMutability": "nonpayable",
      "type": "function"
    },
    {
      "constant": true,
      "inputs": [],
      "name": "owner",
      "outputs": [
        {
          "name": "",
          "type": "address"
        }
      ],
      "payable": false,
      "stateMutability": "view",
      "type": "function"
    },
    {
      "constant": false,
      "inputs": [
        {
          "name": "tokenId",
          "type": "uint256"
        }
      ],
      "name": "enterBidForSupply",
      "outputs": [],
      "payable": true,
      "stateMutability": "payable",
      "type": "function"
    },
    {
      "constant": false,
      "inputs": [
        {
          "name": "tokenId",
          "type": "uint256"
        }
      ],
      "name": "supplyNoLongerForSale",
      "outputs": [],
      "payable": false,
      "stateMutability": "nonpayable",
      "type": "function"
    },
    {
      "constant": false,
      "inputs": [
        {
          "name": "_address",
          "type": "address"
        }
      ],
      "name": "setTokenContractAddress",
      "outputs": [],
      "payable": false,
      "stateMutability": "nonpayable",
      "type": "function"
    },
    {
      "constant": false,
      "inputs": [
        {
          "name": "tokenId",
          "type": "uint256"
        }
      ],
      "name": "withdrawBidForSupply",
      "outputs": [],
      "payable": false,
      "stateMutability": "nonpayable",
      "type": "function"
    },
    {
      "constant": true,
      "inputs": [
        {
          "name": "",
          "type": "uint256"
        }
      ],
      "name": "supplyBids",
      "outputs": [
        {
          "name": "hasBid",
          "type": "bool"
        },
        {
          "name": "tokenId",
          "type": "uint256"
        },
        {
          "name": "bidder",
          "type": "address"
        },
        {
          "name": "value",
          "type": "uint256"
        }
      ],
      "payable": false,
      "stateMutability": "view",
      "type": "function"
    },
    {
      "constant": true,
      "inputs": [
        {
          "name": "",
          "type": "uint256"
        }
      ],
      "name": "supplyOfferedForSale",
      "outputs": [
        {
          "name": "isForSale",
          "type": "bool"
        },
        {
          "name": "tokenId",
          "type": "uint256"
        },
        {
          "name": "seller",
          "type": "address"
        },
        {
          "name": "minValue",
          "type": "uint256"
        },
        {
          "name": "onlySellTo",
          "type": "address"
        }
      ],
      "payable": false,
      "stateMutability": "view",
      "type": "function"
    },
    {
      "constant": false,
      "inputs": [
        {
          "name": "tokenId",
          "type": "uint256"
        }
      ],
      "name": "buySupply",
      "outputs": [],
      "payable": true,
      "stateMutability": "payable",
      "type": "function"
    },
    {
      "constant": false,
      "inputs": [
        {
          "name": "newOwner",
          "type": "address"
        }
      ],
      "name": "transferOwnership",
      "outputs": [],
      "payable": false,
      "stateMutability": "nonpayable",
      "type": "function"
    },
    {
      "constant": true,
      "inputs": [
        {
          "name": "",
          "type": "address"
        }
      ],
      "name": "pendingWithdrawals",
      "outputs": [
        {
          "name": "",
          "type": "uint256"
        }
      ],
      "payable": false,
      "stateMutability": "view",
      "type": "function"
    },
    {
      "anonymous": false,
      "inputs": [
        {
          "indexed": true,
          "name": "typeId",
          "type": "uint256"
        },
        {
          "indexed": true,
          "name": "from",
          "type": "address"
        },
        {
          "indexed": true,
          "name": "to",
          "type": "address"
        },
        {
          "indexed": false,
          "name": "amount",
          "type": "uint256"
        }
      ],
      "name": "TransferSupply",
      "type": "event"
    },
    {
      "anonymous": false,
      "inputs": [
        {
          "indexed": true,
          "name": "typeId",
          "type": "uint256"
        },
        {
          "indexed": false,
          "name": "minValue",
          "type": "uint256"
        },
        {
          "indexed": true,
          "name": "toAddress",
          "type": "address"
        }
      ],
      "name": "SupplyOffered",
      "type": "event"
    },
    {
      "anonymous": false,
      "inputs": [
        {
          "indexed": true,
          "name": "typeId",
          "type": "uint256"
        },
        {
          "indexed": false,
          "name": "value",
          "type": "uint256"
        },
        {
          "indexed": true,
          "name": "fromAddress",
          "type": "address"
        }
      ],
      "name": "SupplyBidEntered",
      "type": "event"
    },
    {
      "anonymous": false,
      "inputs": [
        {
          "indexed": true,
          "name": "typeId",
          "type": "uint256"
        },
        {
          "indexed": false,
          "name": "value",
          "type": "uint256"
        },
        {
          "indexed": true,
          "name": "fromAddress",
          "type": "address"
        }
      ],
      "name": "SupplyBidWithdrawn",
      "type": "event"
    },
    {
      "anonymous": false,
      "inputs": [
        {
          "indexed": true,
          "name": "typeId",
          "type": "uint256"
        },
        {
          "indexed": false,
          "name": "value",
          "type": "uint256"
        },
        {
          "indexed": false,
          "name": "fromAddress",
          "type": "address"
        },
        {
          "indexed": true,
          "name": "toAddress",
          "type": "address"
        }
      ],
      "name": "SupplyBought",
      "type": "event"
    },
    {
      "anonymous": false,
      "inputs": [
        {
          "indexed": true,
          "name": "typeId",
          "type": "uint256"
        },
        {
          "indexed": false,
          "name": "value",
          "type": "uint256"
        },
        {
          "indexed": true,
          "name": "fromAddress",
          "type": "address"
        },
        {
          "indexed": false,
          "name": "toAddress",
          "type": "address"
        }
      ],
      "name": "SupplySold",
      "type": "event"
    },
    {
      "anonymous": false,
      "inputs": [
        {
          "indexed": true,
          "name": "typeId",
          "type": "uint256"
        }
      ],
      "name": "SupplyNoLongerForSale",
      "type": "event"
    },
    {
      "anonymous": false,
      "inputs": [
        {
          "indexed": true,
          "name": "previousOwner",
          "type": "address"
        },
        {
          "indexed": true,
          "name": "newOwner",
          "type": "address"
        }
      ],
      "name": "OwnershipTransferred",
      "type": "event"
    }
  ],
  "bytecode": "0x60606040526001600260146101000a81548160ff0219169083151502179055506000600260156101000a81548160ff021916908315150217905550336000806101000a81548173ffffffffffffffffffffffffffffffffffffffff021916908373ffffffffffffffffffffffffffffffffffffffff16021790555061288f806100896000396000f300606060405260043610610106576000357c0100000000000000000000000000000000000000000000000000000000900463ffffffff168062923f9e1461010b57806301495c1c14610146578063248d2513146101e157806334829bf41461022c5780633e941d181461024157806348193b681461026e57806355a373d61461029a5780635ba93429146102ef5780636ac75a301461031c5780638da5cb5b146103485780639836a0c41461039d578063a1383f49146103b5578063b23d4854146103d8578063ba04644514610411578063c921f1ff14610434578063d9d4b7fd146104b0578063d9d62b3d1461055f578063f2fde38b14610577578063f3f43703146105b0575b600080fd5b341561011657600080fd5b61012c60048080359060200190919050506105fd565b604051808215151515815260200191505060405180910390f35b341561015157600080fd5b610186600480803573ffffffffffffffffffffffffffffffffffffffff169060200190919080359060200190919050506106d3565b60405180851515151581526020018481526020018373ffffffffffffffffffffffffffffffffffffffff1673ffffffffffffffffffffffffffffffffffffffff16815260200182815260200194505050505060405180910390f35b34156101ec57600080fd5b61022a600480803590602001909190803590602001909190803573ffffffffffffffffffffffffffffffffffffffff1690602001909190505061074c565b005b341561023757600080fd5b61023f6109d0565b005b341561024c57600080fd5b610254610ae9565b604051808215151515815260200191505060405180910390f35b341561027957600080fd5b6102986004808035906020019091908035906020019091905050610b00565b005b34156102a557600080fd5b6102ad61124f565b604051808273ffffffffffffffffffffffffffffffffffffffff1673ffffffffffffffffffffffffffffffffffffffff16815260200191505060405180910390f35b34156102fa57600080fd5b610302611275565b604051808215151515815260200191505060405180910390f35b341561032757600080fd5b6103466004808035906020019091908035906020019091905050611288565b005b341561035357600080fd5b61035b6114f7565b604051808273ffffffffffffffffffffffffffffffffffffffff1673ffffffffffffffffffffffffffffffffffffffff16815260200191505060405180910390f35b6103b3600480803590602001909190505061151c565b005b34156103c057600080fd5b6103d6600480803590602001909190505061185b565b005b34156103e357600080fd5b61040f600480803573ffffffffffffffffffffffffffffffffffffffff16906020019091905050611b2d565b005b341561041c57600080fd5b6104326004808035906020019091905050611bed565b005b341561043f57600080fd5b6104556004808035906020019091905050611e63565b60405180851515151581526020018481526020018373ffffffffffffffffffffffffffffffffffffffff1673ffffffffffffffffffffffffffffffffffffffff16815260200182815260200194505050505060405180910390f35b34156104bb57600080fd5b6104d16004808035906020019091905050611ec0565b60405180861515151581526020018581526020018473ffffffffffffffffffffffffffffffffffffffff1673ffffffffffffffffffffffffffffffffffffffff1681526020018381526020018273ffffffffffffffffffffffffffffffffffffffff1673ffffffffffffffffffffffffffffffffffffffff1681526020019550505050505060405180910390f35b6105756004808035906020019091905050611f43565b005b341561058257600080fd5b6105ae600480803573ffffffffffffffffffffffffffffffffffffffff16906020019091905050612657565b005b34156105bb57600080fd5b6105e7600480803573ffffffffffffffffffffffffffffffffffffffff169060200190919050506127ac565b6040518082815260200191505060405180910390f35b600080600260009054906101000a900473ffffffffffffffffffffffffffffffffffffffff1673ffffffffffffffffffffffffffffffffffffffff16631caaa487846000604051602001526040518263ffffffff167c010000000000000000000000000000000000000000000000000000000002815260040180828152602001915050602060405180830381600087803b151561069957600080fd5b6102c65a03f115156106aa57600080fd5b5050506040518051905073ffffffffffffffffffffffffffffffffffffffff1614159050919050565b6004602052816000526040600020818154811015156106ee57fe5b9060005260206000209060040201600091509150508060000160009054906101000a900460ff16908060010154908060020160009054906101000a900473ffffffffffffffffffffffffffffffffffffffff16908060030154905084565b610755836105fd565b151561076057600080fd5b3373ffffffffffffffffffffffffffffffffffffffff16600260009054906101000a900473ffffffffffffffffffffffffffffffffffffffff1673ffffffffffffffffffffffffffffffffffffffff16636352211e856000604051602001526040518263ffffffff167c010000000000000000000000000000000000000000000000000000000002815260040180828152602001915050602060405180830381600087803b151561081057600080fd5b6102c65a03f1151561082157600080fd5b5050506040518051905073ffffffffffffffffffffffffffffffffffffffff1614151561084d57600080fd5b60a0604051908101604052806001151581526020018481526020013373ffffffffffffffffffffffffffffffffffffffff1681526020018381526020018273ffffffffffffffffffffffffffffffffffffffff168152506005600085815260200190815260200160002060008201518160000160006101000a81548160ff0219169083151502179055506020820151816001015560408201518160020160006101000a81548173ffffffffffffffffffffffffffffffffffffffff021916908373ffffffffffffffffffffffffffffffffffffffff1602179055506060820151816003015560808201518160040160006101000a81548173ffffffffffffffffffffffffffffffffffffffff021916908373ffffffffffffffffffffffffffffffffffffffff1602179055509050508073ffffffffffffffffffffffffffffffffffffffff16837f3f94c966e6afc9f998041994822a2c9471024766d83ea3e44f3ee66d4e815f5e846040518082815260200191505060405180910390a3505050565b600080600360003373ffffffffffffffffffffffffffffffffffffffff1673ffffffffffffffffffffffffffffffffffffffff16815260200190815260200160002054111515610a1f57600080fd5b600360003373ffffffffffffffffffffffffffffffffffffffff1673ffffffffffffffffffffffffffffffffffffffff1681526020019081526020016000205490506000600360003373ffffffffffffffffffffffffffffffffffffffff1673ffffffffffffffffffffffffffffffffffffffff168152602001908152602001600020819055503373ffffffffffffffffffffffffffffffffffffffff166108fc829081150290604051600060405180830381858888f193505050501515610ae657600080fd5b50565b6000600260159054906101000a900460ff16905090565b6000610b0a6127c4565b600080610b16866105fd565b1515610b2157600080fd5b33935060066000878152602001908152602001600020608060405190810160405290816000820160009054906101000a900460ff16151515158152602001600182015481526020016002820160009054906101000a900473ffffffffffffffffffffffffffffffffffffffff1673ffffffffffffffffffffffffffffffffffffffff1673ffffffffffffffffffffffffffffffffffffffff16815260200160038201548152505092503373ffffffffffffffffffffffffffffffffffffffff16836040015173ffffffffffffffffffffffffffffffffffffffff161415610c0757600080fd5b8373ffffffffffffffffffffffffffffffffffffffff16600260009054906101000a900473ffffffffffffffffffffffffffffffffffffffff1673ffffffffffffffffffffffffffffffffffffffff16636352211e886000604051602001526040518263ffffffff167c010000000000000000000000000000000000000000000000000000000002815260040180828152602001915050602060405180830381600087803b1515610cb757600080fd5b6102c65a03f11515610cc857600080fd5b5050506040518051905073ffffffffffffffffffffffffffffffffffffffff16141515610cf457600080fd5b600083606001511415610d0657600080fd5b8483606001511015610d1757600080fd5b600260009054906101000a900473ffffffffffffffffffffffffffffffffffffffff1673ffffffffffffffffffffffffffffffffffffffff1663a9059cbb33886040518363ffffffff167c0100000000000000000000000000000000000000000000000000000000028152600401808373ffffffffffffffffffffffffffffffffffffffff1673ffffffffffffffffffffffffffffffffffffffff16815260200182815260200192505050600060405180830381600087803b1515610ddb57600080fd5b6102c65a03f11515610dec57600080fd5b505050826040015173ffffffffffffffffffffffffffffffffffffffff168473ffffffffffffffffffffffffffffffffffffffff16877f751c056c27c2683cf34efc8fde24978bb48c596eb6e0a1ab04eab274bf55167e60016040518082815260200191505060405180910390a460a060405190810160405280600015158152602001878152602001846040015173ffffffffffffffffffffffffffffffffffffffff16815260200160008152602001600073ffffffffffffffffffffffffffffffffffffffff168152506005600088815260200190815260200160002060008201518160000160006101000a81548160ff0219169083151502179055506020820151816001015560408201518160020160006101000a81548173ffffffffffffffffffffffffffffffffffffffff021916908373ffffffffffffffffffffffffffffffffffffffff1602179055506060820151816003015560808201518160040160006101000a81548173ffffffffffffffffffffffffffffffffffffffff021916908373ffffffffffffffffffffffffffffffffffffffff16021790555090505082606001519150608060405190810160405280600015158152602001878152602001600073ffffffffffffffffffffffffffffffffffffffff16815260200160008152506006600088815260200190815260200160002060008201518160000160006101000a81548160ff0219169083151502179055506020820151816001015560408201518160020160006101000a81548173ffffffffffffffffffffffffffffffffffffffff021916908373ffffffffffffffffffffffffffffffffffffffff1602179055506060820151816003015590505060328281151561107057fe5b0490508060036000600160009054906101000a900473ffffffffffffffffffffffffffffffffffffffff1673ffffffffffffffffffffffffffffffffffffffff1673ffffffffffffffffffffffffffffffffffffffff16815260200190815260200160002060008282540192505081905550808203600360008673ffffffffffffffffffffffffffffffffffffffff1673ffffffffffffffffffffffffffffffffffffffff16815260200190815260200160002060008282540192505081905550826040015173ffffffffffffffffffffffffffffffffffffffff16867f1b0cbbe91ae94766b7925daa45039b4a6b59cd562f38344dda228963713a37fb856060015187604051808381526020018273ffffffffffffffffffffffffffffffffffffffff1673ffffffffffffffffffffffffffffffffffffffff1681526020019250505060405180910390a38373ffffffffffffffffffffffffffffffffffffffff16867ff8f266213b81860b353c9f0c0267289acaec6d19357505f2aa1fd7596298130785606001518660400151604051808381526020018273ffffffffffffffffffffffffffffffffffffffff1673ffffffffffffffffffffffffffffffffffffffff1681526020019250505060405180910390a3505050505050565b600260009054906101000a900473ffffffffffffffffffffffffffffffffffffffff1681565b600260149054906101000a900460ff1681565b611291826105fd565b151561129c57600080fd5b3373ffffffffffffffffffffffffffffffffffffffff16600260009054906101000a900473ffffffffffffffffffffffffffffffffffffffff1673ffffffffffffffffffffffffffffffffffffffff16636352211e846000604051602001526040518263ffffffff167c010000000000000000000000000000000000000000000000000000000002815260040180828152602001915050602060405180830381600087803b151561134c57600080fd5b6102c65a03f1151561135d57600080fd5b5050506040518051905073ffffffffffffffffffffffffffffffffffffffff1614151561138957600080fd5b60a0604051908101604052806001151581526020018381526020013373ffffffffffffffffffffffffffffffffffffffff168152602001828152602001600073ffffffffffffffffffffffffffffffffffffffff168152506005600084815260200190815260200160002060008201518160000160006101000a81548160ff0219169083151502179055506020820151816001015560408201518160020160006101000a81548173ffffffffffffffffffffffffffffffffffffffff021916908373ffffffffffffffffffffffffffffffffffffffff1602179055506060820151816003015560808201518160040160006101000a81548173ffffffffffffffffffffffffffffffffffffffff021916908373ffffffffffffffffffffffffffffffffffffffff1602179055509050506000827f3f94c966e6afc9f998041994822a2c9471024766d83ea3e44f3ee66d4e815f5e836040518082815260200191505060405180910390a35050565b6000809054906101000a900473ffffffffffffffffffffffffffffffffffffffff1681565b6115246127c4565b61152d826105fd565b151561153857600080fd5b600034141561154657600080fd5b60066000838152602001908152602001600020608060405190810160405290816000820160009054906101000a900460ff16151515158152602001600182015481526020016002820160009054906101000a900473ffffffffffffffffffffffffffffffffffffffff1673ffffffffffffffffffffffffffffffffffffffff1673ffffffffffffffffffffffffffffffffffffffff16815260200160038201548152505090508060600151341115156115fe57600080fd5b60008160600151118015611613575080600001515b1561173c57806060015160036000836040015173ffffffffffffffffffffffffffffffffffffffff1673ffffffffffffffffffffffffffffffffffffffff16815260200190815260200160002060008282540192505081905550608060405190810160405280600015158152602001838152602001600073ffffffffffffffffffffffffffffffffffffffff16815260200160008152506006600084815260200190815260200160002060008201518160000160006101000a81548160ff0219169083151502179055506020820151816001015560408201518160020160006101000a81548173ffffffffffffffffffffffffffffffffffffffff021916908373ffffffffffffffffffffffffffffffffffffffff160217905550606082015181600301559050505b6080604051908101604052806001151581526020018381526020013373ffffffffffffffffffffffffffffffffffffffff168152602001348152506006600084815260200190815260200160002060008201518160000160006101000a81548160ff0219169083151502179055506020820151816001015560408201518160020160006101000a81548173ffffffffffffffffffffffffffffffffffffffff021916908373ffffffffffffffffffffffffffffffffffffffff160217905550606082015181600301559050503373ffffffffffffffffffffffffffffffffffffffff16827f60289ce8558a26973f21cc33adbfd43fcd93545b9dd88462c879e16daf63dbc2346040518082815260200191505060405180910390a35050565b611864816105fd565b151561186f57600080fd5b3373ffffffffffffffffffffffffffffffffffffffff16600260009054906101000a900473ffffffffffffffffffffffffffffffffffffffff1673ffffffffffffffffffffffffffffffffffffffff16636352211e836000604051602001526040518263ffffffff167c010000000000000000000000000000000000000000000000000000000002815260040180828152602001915050602060405180830381600087803b151561191f57600080fd5b6102c65a03f1151561193057600080fd5b5050506040518051905073ffffffffffffffffffffffffffffffffffffffff1614151561195c57600080fd5b3373ffffffffffffffffffffffffffffffffffffffff166005600083815260200190815260200160002060020160009054906101000a900473ffffffffffffffffffffffffffffffffffffffff1673ffffffffffffffffffffffffffffffffffffffff161415156119cc57600080fd5b60a0604051908101604052806000151581526020018281526020013373ffffffffffffffffffffffffffffffffffffffff16815260200160008152602001600073ffffffffffffffffffffffffffffffffffffffff168152506005600083815260200190815260200160002060008201518160000160006101000a81548160ff0219169083151502179055506020820151816001015560408201518160020160006101000a81548173ffffffffffffffffffffffffffffffffffffffff021916908373ffffffffffffffffffffffffffffffffffffffff1602179055506060820151816003015560808201518160040160006101000a81548173ffffffffffffffffffffffffffffffffffffffff021916908373ffffffffffffffffffffffffffffffffffffffff160217905550905050807ffb71bc6ce9ced7772ec986fc7616202b0d26922bfd1e9cc9bf0589e802df4f4460405160405180910390a250565b60008060009054906101000a900473ffffffffffffffffffffffffffffffffffffffff1673ffffffffffffffffffffffffffffffffffffffff163373ffffffffffffffffffffffffffffffffffffffff16141515611b8a57600080fd5b81905080600260006101000a81548173ffffffffffffffffffffffffffffffffffffffff021916908373ffffffffffffffffffffffffffffffffffffffff1602179055506001600260156101000a81548160ff0219169083151502179055505050565b611bf56127c4565b611bfe826105fd565b1515611c0957600080fd5b60066000838152602001908152602001600020608060405190810160405290816000820160009054906101000a900460ff16151515158152602001600182015481526020016002820160009054906101000a900473ffffffffffffffffffffffffffffffffffffffff1673ffffffffffffffffffffffffffffffffffffffff1673ffffffffffffffffffffffffffffffffffffffff16815260200160038201548152505090503373ffffffffffffffffffffffffffffffffffffffff16816040015173ffffffffffffffffffffffffffffffffffffffff16141515611ced57600080fd5b3373ffffffffffffffffffffffffffffffffffffffff16827faafff1d9f654bb54ed2b31964ca7fe40bfd70581bb7d70ae1a30ad833456c87483606001516040518082815260200191505060405180910390a3608060405190810160405280600015158152602001838152602001600073ffffffffffffffffffffffffffffffffffffffff16815260200160008152506006600084815260200190815260200160002060008201518160000160006101000a81548160ff0219169083151502179055506020820151816001015560408201518160020160006101000a81548173ffffffffffffffffffffffffffffffffffffffff021916908373ffffffffffffffffffffffffffffffffffffffff160217905550606082015181600301559050508060600151600360003373ffffffffffffffffffffffffffffffffffffffff1673ffffffffffffffffffffffffffffffffffffffff168152602001908152602001600020600082825401925050819055505050565b60066020528060005260406000206000915090508060000160009054906101000a900460ff16908060010154908060020160009054906101000a900473ffffffffffffffffffffffffffffffffffffffff16908060030154905084565b60056020528060005260406000206000915090508060000160009054906101000a900460ff16908060010154908060020160009054906101000a900473ffffffffffffffffffffffffffffffffffffffff16908060030154908060040160009054906101000a900473ffffffffffffffffffffffffffffffffffffffff16905085565b611f4b612805565b600080611f566127c4565b611f5f856105fd565b1515611f6a57600080fd5b6005600086815260200190815260200160002060a060405190810160405290816000820160009054906101000a900460ff16151515158152602001600182015481526020016002820160009054906101000a900473ffffffffffffffffffffffffffffffffffffffff1673ffffffffffffffffffffffffffffffffffffffff1673ffffffffffffffffffffffffffffffffffffffff168152602001600382015481526020016004820160009054906101000a900473ffffffffffffffffffffffffffffffffffffffff1673ffffffffffffffffffffffffffffffffffffffff1673ffffffffffffffffffffffffffffffffffffffff168152505093508360000151151561207657600080fd5b6000846080015173ffffffffffffffffffffffffffffffffffffffff16141580156120d157503373ffffffffffffffffffffffffffffffffffffffff16846080015173ffffffffffffffffffffffffffffffffffffffff1614155b156120db57600080fd5b83606001513410156120ec57600080fd5b6000846060015110156120fe57600080fd5b600034101561210c57600080fd5b83604001519250600260009054906101000a900473ffffffffffffffffffffffffffffffffffffffff1673ffffffffffffffffffffffffffffffffffffffff1663a9059cbb33876040518363ffffffff167c0100000000000000000000000000000000000000000000000000000000028152600401808373ffffffffffffffffffffffffffffffffffffffff1673ffffffffffffffffffffffffffffffffffffffff16815260200182815260200192505050600060405180830381600087803b15156121d757600080fd5b6102c65a03f115156121e857600080fd5b5050503373ffffffffffffffffffffffffffffffffffffffff168373ffffffffffffffffffffffffffffffffffffffff16867f751c056c27c2683cf34efc8fde24978bb48c596eb6e0a1ab04eab274bf55167e60016040518082815260200191505060405180910390a4847ffb71bc6ce9ced7772ec986fc7616202b0d26922bfd1e9cc9bf0589e802df4f4460405160405180910390a260323481151561228b57fe5b0491508160036000600160009054906101000a900473ffffffffffffffffffffffffffffffffffffffff1673ffffffffffffffffffffffffffffffffffffffff1673ffffffffffffffffffffffffffffffffffffffff16815260200190815260200160002060008282540192505081905550813403600360008573ffffffffffffffffffffffffffffffffffffffff1673ffffffffffffffffffffffffffffffffffffffff168152602001908152602001600020600082825401925050819055503373ffffffffffffffffffffffffffffffffffffffff16857f1b0cbbe91ae94766b7925daa45039b4a6b59cd562f38344dda228963713a37fb3486604051808381526020018273ffffffffffffffffffffffffffffffffffffffff1673ffffffffffffffffffffffffffffffffffffffff1681526020019250505060405180910390a38273ffffffffffffffffffffffffffffffffffffffff16857ff8f266213b81860b353c9f0c0267289acaec6d19357505f2aa1fd759629813073433604051808381526020018273ffffffffffffffffffffffffffffffffffffffff1673ffffffffffffffffffffffffffffffffffffffff1681526020019250505060405180910390a360066000868152602001908152602001600020608060405190810160405290816000820160009054906101000a900460ff16151515158152602001600182015481526020016002820160009054906101000a900473ffffffffffffffffffffffffffffffffffffffff1673ffffffffffffffffffffffffffffffffffffffff1673ffffffffffffffffffffffffffffffffffffffff16815260200160038201548152505090503373ffffffffffffffffffffffffffffffffffffffff16816040015173ffffffffffffffffffffffffffffffffffffffff161415612650578060600151600360003373ffffffffffffffffffffffffffffffffffffffff1673ffffffffffffffffffffffffffffffffffffffff16815260200190815260200160002060008282540192505081905550608060405190810160405280600015158152602001868152602001600073ffffffffffffffffffffffffffffffffffffffff16815260200160008152506006600087815260200190815260200160002060008201518160000160006101000a81548160ff0219169083151502179055506020820151816001015560408201518160020160006101000a81548173ffffffffffffffffffffffffffffffffffffffff021916908373ffffffffffffffffffffffffffffffffffffffff160217905550606082015181600301559050505b5050505050565b6000809054906101000a900473ffffffffffffffffffffffffffffffffffffffff1673ffffffffffffffffffffffffffffffffffffffff163373ffffffffffffffffffffffffffffffffffffffff161415156126b257600080fd5b600073ffffffffffffffffffffffffffffffffffffffff168173ffffffffffffffffffffffffffffffffffffffff16141515156126ee57600080fd5b8073ffffffffffffffffffffffffffffffffffffffff166000809054906101000a900473ffffffffffffffffffffffffffffffffffffffff1673ffffffffffffffffffffffffffffffffffffffff167f8be0079c531659141344cd1fd0a4f28419497f9722a3daafe3b4186f6b6457e060405160405180910390a3806000806101000a81548173ffffffffffffffffffffffffffffffffffffffff021916908373ffffffffffffffffffffffffffffffffffffffff16021790555050565b60036020528060005260406000206000915090505481565b60806040519081016040528060001515815260200160008152602001600073ffffffffffffffffffffffffffffffffffffffff168152602001600081525090565b60a06040519081016040528060001515815260200160008152602001600073ffffffffffffffffffffffffffffffffffffffff16815260200160008152602001600073ffffffffffffffffffffffffffffffffffffffff16815250905600a165627a7a723058201f9cd21331c3d00d2f31e0549f2e242e4583d9622b2fea48edd070d838a10ae70029",
  "source": "pragma solidity ^0.4.15;\n\nimport './Ownable.sol';\nimport './BasicNFT.sol';\n\ncontract BasicNFTTokenMarket is Ownable  {\n\n  address owner;\n  BasicNFT public tokenContract;\n  //uint256 public ownerCut;\n\n  bool public isNFTMarket = true;\n\n  bool hasTokenContract = false;\n\n  mapping (address => uint) public pendingWithdrawals;\n\n  event TransferSupply(uint256 indexed typeId,address indexed from, address indexed to, uint amount);\n\n  event SupplyOffered(uint256 indexed typeId, uint minValue, address indexed toAddress);\n  event SupplyBidEntered(uint256 indexed typeId, uint value, address indexed fromAddress);\n  event SupplyBidWithdrawn(uint256 indexed typeId, uint value, address indexed fromAddress);\n  event SupplyBought(uint256 indexed typeId,  uint value, address fromAddress, address indexed toAddress);\n  event SupplySold(uint256 indexed typeId, uint value, address indexed fromAddress, address toAddress);\n\n  event SupplyNoLongerForSale(uint256 indexed typeId);\n//  event BidNoLongeOffered(uint256 indexed typeId);\n\n\n\n\n  function setTokenContractAddress(address _address) external onlyOwner {\n      BasicNFT goodTokenContract = BasicNFT(_address);\n\n      // NOTE: verify that a contract is what we expect - https://github.com/Lunyr/crowdsale-contracts/blob/cfadd15986c30521d8ba7d5b6f57b4fefcc7ac38/contracts/LunyrToken.sol#L117\n      //require(goodTokenContract.isGoodToken);\n\n      // Set the new contract address\n      tokenContract = goodTokenContract;\n      hasTokenContract = true;\n  }\n\n\n\n  struct Offer {\n      bool isForSale;\n      uint256 tokenId;\n    //  uint16 supplyIndex;\n      address seller;\n      uint256 minValue;          // in ether\n      address onlySellTo;     // specify to sell only to a specific person\n  }\n\n  struct Bid {\n      bool hasBid;\n      uint256 tokenId;\n      //uint16 supplyIndex;\n      address bidder;\n      uint256 value;\n  }\n\n\n  mapping(address => Bid[]) public bids;\n\n  // A record of supplies that are offered for sale at a specific minimum value, and perhaps to a specific person\n  mapping (uint256 => Offer) public supplyOfferedForSale;\n\n  // A record of the highest  bid\n  mapping (uint256 => Bid) public supplyBids;\n\n\n\n\n  function tokenContractExists() public view returns (bool){\n    return hasTokenContract;\n  }\n\n\n  //tokenId is the keccak of the typeId and instanceId\n  function tokenExists(uint tokenId) public view returns (bool) {\n     return tokenContract.tokenOwner(tokenId) != 0x0;\n   }\n\n  function offerSupplyForSale(uint256 tokenId, uint minSalePriceInWei) public {\n      if(!tokenExists(tokenId)) revert(); //if the good isnt registered\n      if(tokenContract.ownerOf(tokenId) != msg.sender ) revert(); //must have balance of the token\n\n    /*  if(supplyOfferedForSale[uniqueHash].isForSale)\n      {\n        if(minSalePriceInWei > supplyOfferedForSale[uniqueHash].minValue) revert();\n      }*/\n\n      supplyOfferedForSale[tokenId] = Offer(true, tokenId, msg.sender, minSalePriceInWei, 0x0);\n      SupplyOffered(tokenId, minSalePriceInWei, 0x0);\n  }\n\n  function offerSupplyForSaleToAddress(uint256 tokenId, uint minSalePriceInWei, address toAddress) public {\n    if(!tokenExists(tokenId)) revert(); //if the good isnt registered\n    if(tokenContract.ownerOf(tokenId) != msg.sender ) revert(); //must have balance of the token\n\n    supplyOfferedForSale[tokenId] = Offer(true, tokenId, msg.sender, minSalePriceInWei, toAddress);\n    SupplyOffered(tokenId, minSalePriceInWei, toAddress);\n\n  }\n\n\n  function supplyNoLongerForSale(uint256 tokenId) public {\n    if(!tokenExists(tokenId)) revert(); //if the good isnt registered\n    if(tokenContract.ownerOf(tokenId) != msg.sender ) revert();\n    if(supplyOfferedForSale[tokenId].seller != msg.sender) revert(); //must be the owner of this supply\n\n\n     supplyOfferedForSale[tokenId] = Offer(false, tokenId, msg.sender, 0, 0x0);\n     SupplyNoLongerForSale(tokenId);\n  }\n\n\n\n\n  function buySupply(uint256 tokenId) public payable {\n      if(!tokenExists(tokenId)) revert();\n      Offer memory offer = supplyOfferedForSale[tokenId];\n    //  if(supplyIndex >= goods[uniqueHash].totalSupply) revert();\n      if (!offer.isForSale) revert();                // supply not actually for sale\n      if (offer.onlySellTo != 0x0 && offer.onlySellTo != msg.sender) revert();  //  not supposed to be sold to this user\n      if (msg.value < offer.minValue) revert();      // Didn't send enough ETH\n      if (offer.minValue < 0) revert();\n      if (msg.value < 0) revert();\n\n  //    if (offer.seller != goods[uniqueHash].creator) revert(); // Seller no longer owner of\n\n      address seller = offer.seller;\n\n\n      tokenContract.transfer(msg.sender,tokenId);\n      TransferSupply(tokenId, seller, msg.sender, 1);\n      SupplyNoLongerForSale(tokenId);\n\n      uint256 market_fee = msg.value/50;\n\n      pendingWithdrawals[owner] += market_fee;\n\n      pendingWithdrawals[seller] += (msg.value - market_fee);\n\n      SupplyBought(tokenId, msg.value, seller, msg.sender);\n      SupplySold(tokenId, msg.value, seller, msg.sender);\n\n      // Check for the case where there is a bid from the new owner and refund it.\n      // Any other bid can stay in place.\n      Bid memory bid =  supplyBids[tokenId];\n      if (bid.bidder == msg.sender) {\n          // Kill bid and refund value\n          pendingWithdrawals[msg.sender] += bid.value;\n          supplyBids[tokenId] = Bid(false, tokenId, 0x0, 0);\n      }\n  }\n\n\n\n  function enterBidForSupply(uint256 tokenId) public payable {\n    if(!tokenExists(tokenId)) revert();\n\n      if (msg.value == 0) revert();\n      Bid memory existing =  supplyBids[tokenId];\n      if (msg.value <= existing.value) revert(); //need to bid higher\n      if (existing.value > 0 && existing.hasBid) {  ///if there is another active bid\n          // Refund the failing bid\n          pendingWithdrawals[existing.bidder] += existing.value;\n          supplyBids[tokenId] = Bid(false, tokenId, 0x0, 0);\n      }\n\n       supplyBids[tokenId] = Bid(true, tokenId, msg.sender, msg.value);\n       SupplyBidEntered(tokenId, msg.value, msg.sender);\n  }\n\n  function acceptBidForSupply(uint256 tokenId, uint minPrice) public {\n\n      if(!tokenExists(tokenId)) revert();\n\n       address seller = msg.sender;\n       Bid memory bid = supplyBids[tokenId];\n      if(bid.bidder == msg.sender) revert(); //cant accept own bid\n\n      if(tokenContract.ownerOf(tokenId) != seller ) revert(); //must have balance of the token\n\n      if (bid.value == 0) revert();\n      if (bid.value < minPrice) revert();\n\n      tokenContract.transfer(msg.sender,tokenId);\n      TransferSupply(tokenId,seller, bid.bidder, 1);\n\n      supplyOfferedForSale[tokenId] = Offer(false, tokenId, bid.bidder, 0, 0x0);\n      uint256 amount = bid.value;\n      supplyBids[tokenId] = Bid(false, tokenId, 0x0, 0);\n\n      uint256 market_fee = amount/50;\n\n      pendingWithdrawals[owner] += market_fee;\n      pendingWithdrawals[seller] += (amount - market_fee);\n\n      SupplyBought(tokenId, bid.value, seller, bid.bidder);\n      SupplySold(tokenId, bid.value, seller, bid.bidder);\n  }\n\n  function withdrawBidForSupply(uint256 tokenId) public {\n      if(!tokenExists(tokenId)) revert();\n\n      Bid memory bid = supplyBids[tokenId];\n      if (bid.bidder != msg.sender) revert();\n\n      SupplyBidWithdrawn(tokenId, bid.value, msg.sender);\n\n      supplyBids[tokenId] = Bid(false, tokenId, 0x0, 0);\n      // Refund the bid money\n\n      pendingWithdrawals[msg.sender] +=  bid.value;\n  }\n\n\n  function withdrawPendingBalance() public\n  {\n    if( pendingWithdrawals[msg.sender] <= 0 ) revert();\n    uint256 amountToWithdraw = pendingWithdrawals[msg.sender];\n    pendingWithdrawals[msg.sender] = 0;\n    msg.sender.transfer( amountToWithdraw );\n\n  }\n\n\n\n\n}\n",
  "sourcePath": "/home/andy/dev/ethergoods/contracts/BasicNFTTokenMarket.sol",
  "compiler": {
    "name": "solc",
    "version": "0.4.18+commit.9cf6e910.Emscripten.clang"
  },
  "schemaVersion": "1.0.1",
  "updatedAt": "2018-01-10T01:22:07.114Z"
}