{
  "contractName": "BasicNFT",
  "abi": [
    {
      "constant": false,
      "inputs": [
        {
          "name": "beneficiary",
          "type": "address"
        },
        {
          "name": "tokenId",
          "type": "uint256"
        }
      ],
      "name": "approve",
      "outputs": [],
      "payable": false,
      "stateMutability": "nonpayable",
      "type": "function"
    },
    {
      "constant": true,
      "inputs": [
        {
          "name": "owner",
          "type": "address"
        }
      ],
      "name": "getAllTokens",
      "outputs": [
        {
          "name": "",
          "type": "uint256[]"
        }
      ],
      "payable": false,
      "stateMutability": "view",
      "type": "function"
    },
    {
      "constant": true,
      "inputs": [],
      "name": "totalSupply",
      "outputs": [
        {
          "name": "",
          "type": "uint256"
        }
      ],
      "payable": false,
      "stateMutability": "view",
      "type": "function"
    },
    {
      "constant": true,
      "inputs": [
        {
          "name": "",
          "type": "uint256"
        }
      ],
      "name": "tokenOwner",
      "outputs": [
        {
          "name": "",
          "type": "address"
        }
      ],
      "payable": false,
      "stateMutability": "view",
      "type": "function"
    },
    {
      "constant": false,
      "inputs": [
        {
          "name": "from",
          "type": "address"
        },
        {
          "name": "to",
          "type": "address"
        },
        {
          "name": "tokenId",
          "type": "uint256"
        }
      ],
      "name": "transferFrom",
      "outputs": [],
      "payable": false,
      "stateMutability": "nonpayable",
      "type": "function"
    },
    {
      "constant": false,
      "inputs": [
        {
          "name": "tokenId",
          "type": "uint256"
        },
        {
          "name": "_metadata",
          "type": "string"
        }
      ],
      "name": "updateTokenMetadata",
      "outputs": [],
      "payable": false,
      "stateMutability": "nonpayable",
      "type": "function"
    },
    {
      "constant": true,
      "inputs": [
        {
          "name": "owner",
          "type": "address"
        },
        {
          "name": "index",
          "type": "uint256"
        }
      ],
      "name": "tokenOfOwnerByIndex",
      "outputs": [
        {
          "name": "",
          "type": "uint256"
        }
      ],
      "payable": false,
      "stateMutability": "view",
      "type": "function"
    },
    {
      "constant": true,
      "inputs": [
        {
          "name": "tokenId",
          "type": "uint256"
        }
      ],
      "name": "ownerOf",
      "outputs": [
        {
          "name": "",
          "type": "address"
        }
      ],
      "payable": false,
      "stateMutability": "view",
      "type": "function"
    },
    {
      "constant": true,
      "inputs": [
        {
          "name": "tokenId",
          "type": "uint256"
        }
      ],
      "name": "tokenMetadata",
      "outputs": [
        {
          "name": "",
          "type": "string"
        }
      ],
      "payable": false,
      "stateMutability": "view",
      "type": "function"
    },
    {
      "constant": true,
      "inputs": [
        {
          "name": "owner",
          "type": "address"
        }
      ],
      "name": "balanceOf",
      "outputs": [
        {
          "name": "",
          "type": "uint256"
        }
      ],
      "payable": false,
      "stateMutability": "view",
      "type": "function"
    },
    {
      "constant": true,
      "inputs": [],
      "name": "totalTokens",
      "outputs": [
        {
          "name": "",
          "type": "uint256"
        }
      ],
      "payable": false,
      "stateMutability": "view",
      "type": "function"
    },
    {
      "constant": true,
      "inputs": [
        {
          "name": "",
          "type": "uint256"
        }
      ],
      "name": "allowedTransfer",
      "outputs": [
        {
          "name": "",
          "type": "address"
        }
      ],
      "payable": false,
      "stateMutability": "view",
      "type": "function"
    },
    {
      "constant": false,
      "inputs": [
        {
          "name": "to",
          "type": "address"
        },
        {
          "name": "tokenId",
          "type": "uint256"
        }
      ],
      "name": "transfer",
      "outputs": [],
      "payable": false,
      "stateMutability": "nonpayable",
      "type": "function"
    },
    {
      "constant": true,
      "inputs": [
        {
          "name": "",
          "type": "uint256"
        }
      ],
      "name": "_tokenMetadata",
      "outputs": [
        {
          "name": "",
          "type": "string"
        }
      ],
      "payable": false,
      "stateMutability": "view",
      "type": "function"
    },
    {
      "constant": false,
      "inputs": [
        {
          "name": "tokenId",
          "type": "uint256"
        }
      ],
      "name": "takeOwnership",
      "outputs": [],
      "payable": false,
      "stateMutability": "nonpayable",
      "type": "function"
    },
    {
      "constant": true,
      "inputs": [
        {
          "name": "",
          "type": "address"
        },
        {
          "name": "",
          "type": "uint256"
        }
      ],
      "name": "ownedTokens",
      "outputs": [
        {
          "name": "",
          "type": "uint256"
        }
      ],
      "payable": false,
      "stateMutability": "view",
      "type": "function"
    },
    {
      "constant": true,
      "inputs": [
        {
          "name": "tokenId",
          "type": "uint256"
        }
      ],
      "name": "metadata",
      "outputs": [
        {
          "name": "",
          "type": "string"
        }
      ],
      "payable": false,
      "stateMutability": "view",
      "type": "function"
    },
    {
      "anonymous": false,
      "inputs": [
        {
          "indexed": false,
          "name": "tokenId",
          "type": "uint256"
        },
        {
          "indexed": false,
          "name": "owner",
          "type": "address"
        },
        {
          "indexed": false,
          "name": "metadata",
          "type": "string"
        }
      ],
      "name": "Created",
      "type": "event"
    },
    {
      "anonymous": false,
      "inputs": [
        {
          "indexed": false,
          "name": "tokenId",
          "type": "uint256"
        },
        {
          "indexed": false,
          "name": "owner",
          "type": "address"
        }
      ],
      "name": "Destroyed",
      "type": "event"
    },
    {
      "anonymous": false,
      "inputs": [
        {
          "indexed": false,
          "name": "tokenId",
          "type": "uint256"
        },
        {
          "indexed": false,
          "name": "from",
          "type": "address"
        },
        {
          "indexed": false,
          "name": "to",
          "type": "address"
        }
      ],
      "name": "Transferred",
      "type": "event"
    },
    {
      "anonymous": false,
      "inputs": [
        {
          "indexed": false,
          "name": "owner",
          "type": "address"
        },
        {
          "indexed": false,
          "name": "beneficiary",
          "type": "address"
        },
        {
          "indexed": false,
          "name": "tokenId",
          "type": "uint256"
        }
      ],
      "name": "Approval",
      "type": "event"
    },
    {
      "anonymous": false,
      "inputs": [
        {
          "indexed": false,
          "name": "tokenId",
          "type": "uint256"
        },
        {
          "indexed": false,
          "name": "owner",
          "type": "address"
        },
        {
          "indexed": false,
          "name": "data",
          "type": "string"
        }
      ],
      "name": "MetadataUpdated",
      "type": "event"
    }
  ],
  "bytecode": "0x6060604052341561000f57600080fd5b61199e8061001e6000396000f3006060604052600436106100f1576000357c0100000000000000000000000000000000000000000000000000000000900463ffffffff168063095ea7b3146100f6578063178b6de61461013857806318160ddd146101c65780631caaa487146101ef57806323b872dd146102525780632cb2f52e146102b35780632f745c59146103195780636352211e1461036f5780636914db60146103d257806370a082311461046e5780637e1c0c09146104bb578063a6832d53146104e4578063a9059cbb14610547578063ae6a70ee14610589578063b2e6ceeb14610625578063e149f03614610648578063e3684e391461069e575b600080fd5b341561010157600080fd5b610136600480803573ffffffffffffffffffffffffffffffffffffffff1690602001909190803590602001909190505061073a565b005b341561014357600080fd5b61016f600480803573ffffffffffffffffffffffffffffffffffffffff16906020019091905050610976565b6040518080602001828103825283818151815260200191508051906020019060200280838360005b838110156101b2578082015181840152602081019050610197565b505050509050019250505060405180910390f35b34156101d157600080fd5b6101d9610a86565b6040518082815260200191505060405180910390f35b34156101fa57600080fd5b6102106004808035906020019091905050610a8f565b604051808273ffffffffffffffffffffffffffffffffffffffff1673ffffffffffffffffffffffffffffffffffffffff16815260200191505060405180910390f35b341561025d57600080fd5b6102b1600480803573ffffffffffffffffffffffffffffffffffffffff1690602001909190803573ffffffffffffffffffffffffffffffffffffffff16906020019091908035906020019091905050610ac2565b005b34156102be57600080fd5b610317600480803590602001909190803590602001908201803590602001908080601f01602080910402602001604051908101604052809392919081815260200183838082843782019150505050505091905050610bdf565b005b341561032457600080fd5b610359600480803573ffffffffffffffffffffffffffffffffffffffff16906020019091908035906020019091905050610d50565b6040518082815260200191505060405180910390f35b341561037a57600080fd5b6103906004808035906020019091905050610dd4565b604051808273ffffffffffffffffffffffffffffffffffffffff1673ffffffffffffffffffffffffffffffffffffffff16815260200191505060405180910390f35b34156103dd57600080fd5b6103f36004808035906020019091905050610e11565b6040518080602001828103825283818151815260200191508051906020019080838360005b83811015610433578082015181840152602081019050610418565b50505050905090810190601f1680156104605780820380516001836020036101000a031916815260200191505b509250505060405180910390f35b341561047957600080fd5b6104a5600480803573ffffffffffffffffffffffffffffffffffffffff16906020019091905050610ecc565b6040518082815260200191505060405180910390f35b34156104c657600080fd5b6104ce610f15565b6040518082815260200191505060405180910390f35b34156104ef57600080fd5b6105056004808035906020019091905050610f1b565b604051808273ffffffffffffffffffffffffffffffffffffffff1673ffffffffffffffffffffffffffffffffffffffff16815260200191505060405180910390f35b341561055257600080fd5b610587600480803573ffffffffffffffffffffffffffffffffffffffff16906020019091908035906020019091905050610f4e565b005b341561059457600080fd5b6105aa6004808035906020019091905050610ffd565b6040518080602001828103825283818151815260200191508051906020019080838360005b838110156105ea5780820151818401526020810190506105cf565b50505050905090810190601f1680156106175780820380516001836020036101000a031916815260200191505b509250505060405180910390f35b341561063057600080fd5b61064660048080359060200190919050506110ad565b005b341561065357600080fd5b610688600480803573ffffffffffffffffffffffffffffffffffffffff1690602001909190803590602001909190505061115b565b6040518082815260200191505060405180910390f35b34156106a957600080fd5b6106bf600480803590602001909190505061118c565b6040518080602001828103825283818151815260200191508051906020019080838360005b838110156106ff5780820151818401526020810190506106e4565b50505050905090810190601f16801561072c5780820380516001836020036101000a031916815260200191505b509250505060405180910390f35b6004600082815260200190815260200160002060009054906101000a900473ffffffffffffffffffffffffffffffffffffffff1673ffffffffffffffffffffffffffffffffffffffff163373ffffffffffffffffffffffffffffffffffffffff161415156107a757600080fd5b60006005600083815260200190815260200160002060009054906101000a900473ffffffffffffffffffffffffffffffffffffffff1673ffffffffffffffffffffffffffffffffffffffff1614151561084e5760006005600083815260200190815260200160002060006101000a81548173ffffffffffffffffffffffffffffffffffffffff021916908373ffffffffffffffffffffffffffffffffffffffff1602179055505b816005600083815260200190815260200160002060006101000a81548173ffffffffffffffffffffffffffffffffffffffff021916908373ffffffffffffffffffffffffffffffffffffffff1602179055507f8c5be1e5ebec7d5bd14f71427d1e84f3dd0314c0f7b2291e5b200ac8c7c3b9256004600083815260200190815260200160002060009054906101000a900473ffffffffffffffffffffffffffffffffffffffff168383604051808473ffffffffffffffffffffffffffffffffffffffff1673ffffffffffffffffffffffffffffffffffffffff1681526020018373ffffffffffffffffffffffffffffffffffffffff1673ffffffffffffffffffffffffffffffffffffffff168152602001828152602001935050505060405180910390a15050565b61097e611879565b6000610988611879565b6000600260008673ffffffffffffffffffffffffffffffffffffffff1673ffffffffffffffffffffffffffffffffffffffff168152602001908152602001600020549250826040518059106109da5750595b90808252806020026020018201604052509150600090505b82811015610a7b57600160008673ffffffffffffffffffffffffffffffffffffffff1673ffffffffffffffffffffffffffffffffffffffff16815260200190815260200160002081815481101515610a4657fe5b9060005260206000209001548282815181101515610a6057fe5b906020019060200201818152505080806001019150506109f2565b819350505050919050565b60008054905090565b60046020528060005260406000206000915054906101000a900473ffffffffffffffffffffffffffffffffffffffff1681565b8273ffffffffffffffffffffffffffffffffffffffff166004600083815260200190815260200160002060009054906101000a900473ffffffffffffffffffffffffffffffffffffffff1673ffffffffffffffffffffffffffffffffffffffff16141515610b2f57600080fd5b3373ffffffffffffffffffffffffffffffffffffffff166005600083815260200190815260200160002060009054906101000a900473ffffffffffffffffffffffffffffffffffffffff1673ffffffffffffffffffffffffffffffffffffffff16141515610b9c57600080fd5b610bda6004600083815260200190815260200160002060009054906101000a900473ffffffffffffffffffffffffffffffffffffffff168383611247565b505050565b6004600083815260200190815260200160002060009054906101000a900473ffffffffffffffffffffffffffffffffffffffff1673ffffffffffffffffffffffffffffffffffffffff163373ffffffffffffffffffffffffffffffffffffffff16141515610c4c57600080fd5b80600660008481526020019081526020016000209080519060200190610c7392919061188d565b507f6406605b3a91832e56f26099621898b4588e904f56001d608a6b616030060eda823383604051808481526020018373ffffffffffffffffffffffffffffffffffffffff1673ffffffffffffffffffffffffffffffffffffffff16815260200180602001828103825283818151815260200191508051906020019080838360005b83811015610d10578082015181840152602081019050610cf5565b50505050905090810190601f168015610d3d5780820380516001836020036101000a031916815260200191505b5094505050505060405180910390a15050565b6000808210158015610d695750610d6683610ecc565b82105b1515610d7457600080fd5b600160008473ffffffffffffffffffffffffffffffffffffffff1673ffffffffffffffffffffffffffffffffffffffff16815260200190815260200160002082815481101515610dc057fe5b906000526020600020900154905092915050565b60006004600083815260200190815260200160002060009054906101000a900473ffffffffffffffffffffffffffffffffffffffff169050919050565b610e1961190d565b600660008381526020019081526020016000208054600181600116156101000203166002900480601f016020809104026020016040519081016040528092919081815260200182805460018160011615610100020316600290048015610ec05780601f10610e9557610100808354040283529160200191610ec0565b820191906000526020600020905b815481529060010190602001808311610ea357829003601f168201915b50505050509050919050565b6000600260008373ffffffffffffffffffffffffffffffffffffffff1673ffffffffffffffffffffffffffffffffffffffff168152602001908152602001600020549050919050565b60005481565b60056020528060005260406000206000915054906101000a900473ffffffffffffffffffffffffffffffffffffffff1681565b3373ffffffffffffffffffffffffffffffffffffffff166004600083815260200190815260200160002060009054906101000a900473ffffffffffffffffffffffffffffffffffffffff1673ffffffffffffffffffffffffffffffffffffffff16141515610fbb57600080fd5b610ff96004600083815260200190815260200160002060009054906101000a900473ffffffffffffffffffffffffffffffffffffffff168383611247565b5050565b60066020528060005260406000206000915090508054600181600116156101000203166002900480601f0160208091040260200160405190810160405280929190818152602001828054600181600116156101000203166002900480156110a55780601f1061107a576101008083540402835291602001916110a5565b820191906000526020600020905b81548152906001019060200180831161108857829003601f168201915b505050505081565b3373ffffffffffffffffffffffffffffffffffffffff166005600083815260200190815260200160002060009054906101000a900473ffffffffffffffffffffffffffffffffffffffff1673ffffffffffffffffffffffffffffffffffffffff1614151561111a57600080fd5b6111586004600083815260200190815260200160002060009054906101000a900473ffffffffffffffffffffffffffffffffffffffff163383611247565b50565b60016020528160005260406000208181548110151561117657fe5b9060005260206000209001600091509150505481565b61119461190d565b600660008381526020019081526020016000208054600181600116156101000203166002900480601f01602080910402602001604051908101604052809291908181526020018280546001816001161561010002031660029004801561123b5780601f106112105761010080835404028352916020019161123b565b820191906000526020600020905b81548152906001019060200180831161121e57829003601f168201915b50505050509050919050565b61125081611308565b61125a838261141b565b61126482826115ed565b7f0ea8df787dde63a7bdc34d17097adf25749a3521f660e92dabdff8d6ee91d18a818484604051808481526020018373ffffffffffffffffffffffffffffffffffffffff1673ffffffffffffffffffffffffffffffffffffffff1681526020018273ffffffffffffffffffffffffffffffffffffffff1673ffffffffffffffffffffffffffffffffffffffff168152602001935050505060405180910390a1505050565b60006005600083815260200190815260200160002060006101000a81548173ffffffffffffffffffffffffffffffffffffffff021916908373ffffffffffffffffffffffffffffffffffffffff1602179055507f8c5be1e5ebec7d5bd14f71427d1e84f3dd0314c0f7b2291e5b200ac8c7c3b9256004600083815260200190815260200160002060009054906101000a900473ffffffffffffffffffffffffffffffffffffffff16600083604051808473ffffffffffffffffffffffffffffffffffffffff1673ffffffffffffffffffffffffffffffffffffffff1681526020018373ffffffffffffffffffffffffffffffffffffffff168152602001828152602001935050505060405180910390a150565b600080600080600260008773ffffffffffffffffffffffffffffffffffffffff1673ffffffffffffffffffffffffffffffffffffffff1681526020019081526020016000205411151561146d57600080fd5b600260008673ffffffffffffffffffffffffffffffffffffffff1673ffffffffffffffffffffffffffffffffffffffff16815260200190815260200160002054925060036000858152602001908152602001600020549150600160008673ffffffffffffffffffffffffffffffffffffffff1673ffffffffffffffffffffffffffffffffffffffff1681526020019081526020016000206001840381548110151561151457fe5b906000526020600020900154905080600160008773ffffffffffffffffffffffffffffffffffffffff1673ffffffffffffffffffffffffffffffffffffffff1681526020019081526020016000208381548110151561156f57fe5b906000526020600020900181905550816003600083815260200190815260200160002081905550600260008673ffffffffffffffffffffffffffffffffffffffff1673ffffffffffffffffffffffffffffffffffffffff16815260200190815260200160002060008154809291906001900391905055505050505050565b600260008373ffffffffffffffffffffffffffffffffffffffff1673ffffffffffffffffffffffffffffffffffffffff16815260200190815260200160002054600160008473ffffffffffffffffffffffffffffffffffffffff1673ffffffffffffffffffffffffffffffffffffffff1681526020019081526020016000208054905014156116e157600160008373ffffffffffffffffffffffffffffffffffffffff1673ffffffffffffffffffffffffffffffffffffffff16815260200190815260200160002080548060010182816116c79190611921565b91600052602060002090016000839091909150555061177d565b80600160008473ffffffffffffffffffffffffffffffffffffffff1673ffffffffffffffffffffffffffffffffffffffff168152602001908152602001600020600260008573ffffffffffffffffffffffffffffffffffffffff1673ffffffffffffffffffffffffffffffffffffffff1681526020019081526020016000205481548110151561176d57fe5b9060005260206000209001819055505b816004600083815260200190815260200160002060006101000a81548173ffffffffffffffffffffffffffffffffffffffff021916908373ffffffffffffffffffffffffffffffffffffffff160217905550600260008373ffffffffffffffffffffffffffffffffffffffff1673ffffffffffffffffffffffffffffffffffffffff168152602001908152602001600020546003600083815260200190815260200160002081905550600260008373ffffffffffffffffffffffffffffffffffffffff1673ffffffffffffffffffffffffffffffffffffffff168152602001908152602001600020600081548092919060010191905055505050565b602060405190810160405280600081525090565b828054600181600116156101000203166002900490600052602060002090601f016020900481019282601f106118ce57805160ff19168380011785556118fc565b828001600101855582156118fc579182015b828111156118fb5782518255916020019190600101906118e0565b5b509050611909919061194d565b5090565b602060405190810160405280600081525090565b81548183558181151161194857818360005260206000209182019101611947919061194d565b5b505050565b61196f91905b8082111561196b576000816000905550600101611953565b5090565b905600a165627a7a723058202c7e91735b6826fc1197912b55c76db115c0fa1107b51dbbb6e8a1b6d3b8a3180029",
  "source": "pragma solidity ^0.4.15;\n\nimport './NFT.sol';\n\ncontract BasicNFT is NFT, NFTEvents {\n\n  uint public totalTokens;\n\n  // Array of owned tokens for a user\n  mapping(address => uint[]) public ownedTokens;\n  mapping(address => uint) _virtualLength;\n  mapping(uint => uint) _tokenIndexInOwnerArray;\n\n  // Mapping from token ID to owner\n  mapping(uint => address) public tokenOwner;\n\n  // Allowed transfers for a token (only one at a time)\n  mapping(uint => address) public allowedTransfer;\n\n  // Metadata associated with each token\n  mapping(uint => string) public _tokenMetadata;\n\n  function totalSupply() public constant returns (uint) {\n    return totalTokens;\n  }\n\n  function balanceOf(address owner) public constant returns (uint) {\n    return _virtualLength[owner];\n  }\n\n  function tokenOfOwnerByIndex(address owner, uint index) public constant returns (uint) {\n    require(index >= 0 && index < balanceOf(owner));\n    return ownedTokens[owner][index];\n  }\n\n  function getAllTokens(address owner) public constant returns (uint[]) {\n    uint size = _virtualLength[owner];\n    uint[] memory result = new uint[](size);\n    for (uint i = 0; i < size; i++) {\n      result[i] = ownedTokens[owner][i];\n    }\n    return result;\n  }\n\n  function ownerOf(uint tokenId) public constant returns (address) {\n    return tokenOwner[tokenId];\n  }\n\n  function transfer(address to, uint tokenId) public {\n    require(tokenOwner[tokenId] == msg.sender);\n    return _transfer(tokenOwner[tokenId], to, tokenId);\n  }\n\n  function takeOwnership(uint tokenId) public {\n    require(allowedTransfer[tokenId] == msg.sender);\n    return _transfer(tokenOwner[tokenId], msg.sender, tokenId);\n  }\n\n  function transferFrom(address from, address to, uint tokenId) public {\n    require(tokenOwner[tokenId] == from);\n    require(allowedTransfer[tokenId] == msg.sender);\n    return _transfer(tokenOwner[tokenId], to, tokenId);\n  }\n\n  function approve(address beneficiary, uint tokenId) public {\n    require(msg.sender == tokenOwner[tokenId]);\n\n    if (allowedTransfer[tokenId] != 0) {\n      allowedTransfer[tokenId] = 0;\n    }\n    allowedTransfer[tokenId] = beneficiary;\n    Approval(tokenOwner[tokenId], beneficiary, tokenId);\n  }\n\n  function tokenMetadata(uint tokenId) constant public returns (string) {\n    return _tokenMetadata[tokenId];\n  }\n\n  function metadata(uint tokenId) constant public returns (string) {\n    return _tokenMetadata[tokenId];\n  }\n\n  function updateTokenMetadata(uint tokenId, string _metadata) public {\n    require(msg.sender == tokenOwner[tokenId]);\n    _tokenMetadata[tokenId] = _metadata;\n    MetadataUpdated(tokenId, msg.sender, _metadata);\n  }\n\n  function _transfer(address from, address to, uint tokenId) internal {\n    _clearApproval(tokenId);\n    _removeTokenFrom(from, tokenId);\n    _addTokenTo(to, tokenId);\n    Transferred(tokenId, from, to);\n  }\n\n  function _clearApproval(uint tokenId) internal {\n    allowedTransfer[tokenId] = 0;\n    Approval(tokenOwner[tokenId], 0, tokenId);\n  }\n\n  function _removeTokenFrom(address from, uint tokenId) internal {\n    require(_virtualLength[from] > 0);\n\n    uint length = _virtualLength[from];\n    uint index = _tokenIndexInOwnerArray[tokenId];\n    uint swapToken = ownedTokens[from][length - 1];\n\n    ownedTokens[from][index] = swapToken;\n    _tokenIndexInOwnerArray[swapToken] = index;\n    _virtualLength[from]--;\n  }\n\n  function _addTokenTo(address owner, uint tokenId) internal {\n    if (ownedTokens[owner].length == _virtualLength[owner]) {\n      ownedTokens[owner].push(tokenId);\n    } else {\n      ownedTokens[owner][_virtualLength[owner]] = tokenId;\n    }\n    tokenOwner[tokenId] = owner;\n    _tokenIndexInOwnerArray[tokenId] = _virtualLength[owner];\n    _virtualLength[owner]++;\n  }\n}\n",
  "sourcePath": "/home/andy/dev/ethergoods/contracts/BasicNFT.sol",
  "compiler": {
    "name": "solc",
    "version": "0.4.18+commit.9cf6e910.Emscripten.clang"
  },
  "schemaVersion": "1.0.1",
  "updatedAt": "2018-01-10T01:22:07.109Z"
}