{
  "contractName": "EtherGoods",
  "abi": [
    {
      "constant": true,
      "inputs": [],
      "name": "name",
      "outputs": [
        {
          "name": "",
          "type": "string"
        }
      ],
      "payable": false,
      "stateMutability": "view",
      "type": "function"
    },
    {
      "constant": false,
      "inputs": [
        {
          "name": "enabled",
          "type": "bool"
        },
        {
          "name": "typeId",
          "type": "uint256"
        }
      ],
      "name": "setClaimsEnabled",
      "outputs": [],
      "payable": false,
      "stateMutability": "nonpayable",
      "type": "function"
    },
    {
      "constant": false,
      "inputs": [
        {
          "name": "goodTypeName",
          "type": "bytes32"
        },
        {
          "name": "description",
          "type": "string"
        },
        {
          "name": "totalSupply",
          "type": "uint256"
        },
        {
          "name": "claimPrice",
          "type": "uint256"
        }
      ],
      "name": "registerNewGoodType",
      "outputs": [],
      "payable": false,
      "stateMutability": "nonpayable",
      "type": "function"
    },
    {
      "constant": false,
      "inputs": [
        {
          "name": "typeId",
          "type": "uint256"
        }
      ],
      "name": "claimGood",
      "outputs": [],
      "payable": true,
      "stateMutability": "payable",
      "type": "function"
    },
    {
      "constant": true,
      "inputs": [],
      "name": "goods",
      "outputs": [
        {
          "name": "",
          "type": "address"
        }
      ],
      "payable": false,
      "stateMutability": "view",
      "type": "function"
    },
    {
      "constant": false,
      "inputs": [],
      "name": "withdrawPendingBalance",
      "outputs": [],
      "payable": false,
      "stateMutability": "nonpayable",
      "type": "function"
    },
    {
      "constant": false,
      "inputs": [],
      "name": "EthergoodsMarket",
      "outputs": [],
      "payable": true,
      "stateMutability": "payable",
      "type": "function"
    },
    {
      "constant": false,
      "inputs": [
        {
          "name": "claimPrice",
          "type": "uint256"
        },
        {
          "name": "typeId",
          "type": "uint256"
        }
      ],
      "name": "setClaimsPrice",
      "outputs": [],
      "payable": false,
      "stateMutability": "nonpayable",
      "type": "function"
    },
    {
      "constant": false,
      "inputs": [
        {
          "name": "description",
          "type": "string"
        },
        {
          "name": "typeId",
          "type": "uint256"
        }
      ],
      "name": "setGoodTypeDescription",
      "outputs": [],
      "payable": false,
      "stateMutability": "nonpayable",
      "type": "function"
    },
    {
      "constant": true,
      "inputs": [],
      "name": "version",
      "outputs": [
        {
          "name": "",
          "type": "string"
        }
      ],
      "payable": false,
      "stateMutability": "view",
      "type": "function"
    },
    {
      "constant": true,
      "inputs": [],
      "name": "hasMarketContract",
      "outputs": [
        {
          "name": "",
          "type": "bool"
        }
      ],
      "payable": false,
      "stateMutability": "view",
      "type": "function"
    },
    {
      "constant": false,
      "inputs": [
        {
          "name": "to",
          "type": "address"
        },
        {
          "name": "typeId",
          "type": "uint256"
        }
      ],
      "name": "transferRegistration",
      "outputs": [],
      "payable": false,
      "stateMutability": "nonpayable",
      "type": "function"
    },
    {
      "constant": true,
      "inputs": [],
      "name": "owner",
      "outputs": [
        {
          "name": "",
          "type": "address"
        }
      ],
      "payable": false,
      "stateMutability": "view",
      "type": "function"
    },
    {
      "constant": true,
      "inputs": [],
      "name": "goodTokenMarket",
      "outputs": [
        {
          "name": "",
          "type": "address"
        }
      ],
      "payable": false,
      "stateMutability": "view",
      "type": "function"
    },
    {
      "constant": false,
      "inputs": [
        {
          "name": "_address",
          "type": "address"
        }
      ],
      "name": "setTokenContractAddress",
      "outputs": [],
      "payable": false,
      "stateMutability": "nonpayable",
      "type": "function"
    },
    {
      "constant": false,
      "inputs": [
        {
          "name": "_address",
          "type": "address"
        }
      ],
      "name": "setMarketContractAddress",
      "outputs": [],
      "payable": false,
      "stateMutability": "nonpayable",
      "type": "function"
    },
    {
      "constant": false,
      "inputs": [
        {
          "name": "newOwner",
          "type": "address"
        }
      ],
      "name": "transferOwnership",
      "outputs": [],
      "payable": false,
      "stateMutability": "nonpayable",
      "type": "function"
    },
    {
      "constant": true,
      "inputs": [
        {
          "name": "",
          "type": "address"
        }
      ],
      "name": "pendingWithdrawals",
      "outputs": [
        {
          "name": "",
          "type": "uint256"
        }
      ],
      "payable": false,
      "stateMutability": "view",
      "type": "function"
    },
    {
      "constant": true,
      "inputs": [],
      "name": "hasTokenContract",
      "outputs": [
        {
          "name": "",
          "type": "bool"
        }
      ],
      "payable": false,
      "stateMutability": "view",
      "type": "function"
    },
    {
      "anonymous": false,
      "inputs": [
        {
          "indexed": true,
          "name": "to",
          "type": "address"
        },
        {
          "indexed": false,
          "name": "typeId",
          "type": "uint256"
        }
      ],
      "name": "RegisterGood",
      "type": "event"
    },
    {
      "anonymous": false,
      "inputs": [
        {
          "indexed": true,
          "name": "from",
          "type": "address"
        },
        {
          "indexed": true,
          "name": "to",
          "type": "address"
        },
        {
          "indexed": false,
          "name": "typeId",
          "type": "uint256"
        }
      ],
      "name": "RegistrationTransfer",
      "type": "event"
    },
    {
      "anonymous": false,
      "inputs": [
        {
          "indexed": true,
          "name": "owner",
          "type": "address"
        },
        {
          "indexed": false,
          "name": "enabele",
          "type": "bool"
        },
        {
          "indexed": false,
          "name": "typeId",
          "type": "uint256"
        }
      ],
      "name": "ModifyClaimsEnable",
      "type": "event"
    },
    {
      "anonymous": false,
      "inputs": [
        {
          "indexed": true,
          "name": "owner",
          "type": "address"
        },
        {
          "indexed": false,
          "name": "price",
          "type": "uint256"
        },
        {
          "indexed": false,
          "name": "typeId",
          "type": "uint256"
        }
      ],
      "name": "ModifyClaimsPrice",
      "type": "event"
    },
    {
      "anonymous": false,
      "inputs": [
        {
          "indexed": true,
          "name": "owner",
          "type": "address"
        },
        {
          "indexed": false,
          "name": "description",
          "type": "string"
        },
        {
          "indexed": false,
          "name": "typeId",
          "type": "uint256"
        }
      ],
      "name": "ModifyGoodTypeDescription",
      "type": "event"
    },
    {
      "anonymous": false,
      "inputs": [
        {
          "indexed": true,
          "name": "to",
          "type": "address"
        },
        {
          "indexed": false,
          "name": "goodHash",
          "type": "uint256"
        },
        {
          "indexed": false,
          "name": "supplyIndex",
          "type": "uint256"
        }
      ],
      "name": "ClaimGood",
      "type": "event"
    },
    {
      "anonymous": false,
      "inputs": [
        {
          "indexed": true,
          "name": "previousOwner",
          "type": "address"
        },
        {
          "indexed": true,
          "name": "newOwner",
          "type": "address"
        }
      ],
      "name": "OwnershipTransferred",
      "type": "event"
    }
  ],
  "bytecode": "0x60606040526040805190810160405280600a81526020017f4574686572476f6f6473000000000000000000000000000000000000000000008152506002908051906020019062000051929190620000ce565b506000600460006101000a81548160ff0219169083151502179055506000600460016101000a81548160ff021916908315150217905550336000806101000a81548173ffffffffffffffffffffffffffffffffffffffff021916908373ffffffffffffffffffffffffffffffffffffffff1602179055506200017d565b828054600181600116156101000203166002900490600052602060002090601f016020900481019282601f106200011157805160ff191683800117855562000142565b8280016001018555821562000142579182015b828111156200014157825182559160200191906001019062000124565b5b50905062000151919062000155565b5090565b6200017a91905b80821115620001765760008160009055506001016200015c565b5090565b90565b611a75806200018d6000396000f300606060405260043610610107576000357c0100000000000000000000000000000000000000000000000000000000900463ffffffff16806306fdde031461010c5780630bd42e3e1461019a578063215f012e146101c8578063244814ba146102445780632702182b1461025c57806334829bf4146102b1578063395647cc146102c65780633dd8d5a5146102d05780634db7bd8e146102fc57806354fd4d501461036257806369cdbd5a146103f05780638a53f2421461041d5780638da5cb5b1461045f578063a55acd0b146104b4578063b23d485414610509578063c73358de14610542578063f2fde38b1461057b578063f3f43703146105b4578063f61b683214610601575b600080fd5b341561011757600080fd5b61011f61062e565b6040518080602001828103825283818151815260200191508051906020019080838360005b8381101561015f578082015181840152602081019050610144565b50505050905090810190601f16801561018c5780820380516001836020036101000a031916815260200191505b509250505060405180910390f35b34156101a557600080fd5b6101c6600480803515159060200190919080359060200190919050506106cc565b005b34156101d357600080fd5b61024260048080356000191690602001909190803590602001908201803590602001908080601f016020809104026020016040519081016040528093929190818152602001838380828437820191505050505050919080359060200190919080359060200190919050506107f7565b005b61025a6004808035906020019091905050610a37565b005b341561026757600080fd5b61026f610fbf565b604051808273ffffffffffffffffffffffffffffffffffffffff1673ffffffffffffffffffffffffffffffffffffffff16815260200191505060405180910390f35b34156102bc57600080fd5b6102c4610fe5565b005b6102ce6110b1565b005b34156102db57600080fd5b6102fa600480803590602001909190803590602001909190505061118c565b005b341561030757600080fd5b610360600480803590602001908201803590602001908080601f016020809104026020016040519081016040528093929190818152602001838380828437820191505050505050919080359060200190919050506112ae565b005b341561036d57600080fd5b610375611437565b6040518080602001828103825283818151815260200191508051906020019080838360005b838110156103b557808201518184015260208101905061039a565b50505050905090810190601f1680156103e25780820380516001836020036101000a031916815260200191505b509250505060405180910390f35b34156103fb57600080fd5b6104036114d5565b604051808215151515815260200191505060405180910390f35b341561042857600080fd5b61045d600480803573ffffffffffffffffffffffffffffffffffffffff169060200190919080359060200190919050506114e8565b005b341561046a57600080fd5b610472611645565b604051808273ffffffffffffffffffffffffffffffffffffffff1673ffffffffffffffffffffffffffffffffffffffff16815260200191505060405180910390f35b34156104bf57600080fd5b6104c761166a565b604051808273ffffffffffffffffffffffffffffffffffffffff1673ffffffffffffffffffffffffffffffffffffffff16815260200191505060405180910390f35b341561051457600080fd5b610540600480803573ffffffffffffffffffffffffffffffffffffffff16906020019091905050611690565b005b341561054d57600080fd5b610579600480803573ffffffffffffffffffffffffffffffffffffffff16906020019091905050611750565b005b341561058657600080fd5b6105b2600480803573ffffffffffffffffffffffffffffffffffffffff16906020019091905050611810565b005b34156105bf57600080fd5b6105eb600480803573ffffffffffffffffffffffffffffffffffffffff16906020019091905050611965565b6040518082815260200191505060405180910390f35b341561060c57600080fd5b61061461197d565b604051808215151515815260200191505060405180910390f35b60028054600181600116156101000203166002900480601f0160208091040260200160405190810160405280929190818152602001828054600181600116156101000203166002900480156106c45780601f10610699576101008083540402835291602001916106c4565b820191906000526020600020905b8154815290600101906020018083116106a757829003601f168201915b505050505081565b6006600082815260200190815260200160002060070160009054906101000a900460ff1615156106fb57600080fd5b3373ffffffffffffffffffffffffffffffffffffffff166006600083815260200190815260200160002060010160009054906101000a900473ffffffffffffffffffffffffffffffffffffffff1673ffffffffffffffffffffffffffffffffffffffff1614151561076b57600080fd5b816006600083815260200190815260200160002060070160016101000a81548160ff0219169083151502179055503373ffffffffffffffffffffffffffffffffffffffff167f7897f6ee6e11a2f27cccc9ae272b8c9875098853088c9f8a5b9f32fc0776927e838360405180831515151581526020018281526020019250505060405180910390a25050565b600060208060ff16111561080a57600080fd5b8460405180826000191660001916815260200191505060405180910390206001900490506006600082815260200190815260200160002060070160009054906101000a900460ff161561085c57600080fd5b600183101561086a57600080fd5b600082101561087857600080fd5b60016006600083815260200190815260200160002060070160006101000a81548160ff021916908315150217905550336006600083815260200190815260200160002060010160006101000a81548173ffffffffffffffffffffffffffffffffffffffff021916908373ffffffffffffffffffffffffffffffffffffffff160217905550826006600083815260200190815260200160002060020181905550600060066000838152602001908152602001600020600301819055508060066000838152602001908152602001600020600001819055508460066000838152602001908152602001600020600501816000191690555083600660008381526020019081526020016000206006019080519060200190610997929190611990565b5081600660008381526020019081526020016000206004018190555060016006600083815260200190815260200160002060070160016101000a81548160ff0219169083151502179055503373ffffffffffffffffffffffffffffffffffffffff167fd54b51a2cbb8aa768a60b2dbbcc6b37eb1fd1932a1fcd20aed2bf16ac54bbc8f826040518082815260200191505060405180910390a25050505050565b6000610a41611a10565b6006600084815260200190815260200160002060070160009054906101000a900460ff161515610a7057600080fd5b60066000848152602001908152602001600020600201546006600085815260200190815260200160002060030154101515610aaa57600080fd5b6006600084815260200190815260200160002060040154341015610acd57600080fd5b600060066000858152602001908152602001600020600401541015610af157600080fd5b6000341015610aff57600080fd5b600460029054906101000a900473ffffffffffffffffffffffffffffffffffffffff1673ffffffffffffffffffffffffffffffffffffffff1663579394f28460066000878152602001908152602001600020600301546000604051602001526040518363ffffffff167c01000000000000000000000000000000000000000000000000000000000281526004018083815260200182815260200192505050602060405180830381600087803b1515610bb657600080fd5b6102c65a03f11515610bc757600080fd5b5050506040518051905015610bdb57600080fd5b600660008481526020019081526020016000206003015491506006600084815260200190815260200160002060030160008154809291906001019190505550600460029054906101000a900473ffffffffffffffffffffffffffffffffffffffff1673ffffffffffffffffffffffffffffffffffffffff1663f096850d33600460029054906101000a900473ffffffffffffffffffffffffffffffffffffffff1673ffffffffffffffffffffffffffffffffffffffff166326b4768787876000604051602001526040518363ffffffff167c01000000000000000000000000000000000000000000000000000000000281526004018083815260200182815260200192505050602060405180830381600087803b1515610cfa57600080fd5b6102c65a03f11515610d0b57600080fd5b50505060405180519050846040518463ffffffff167c0100000000000000000000000000000000000000000000000000000000028152600401808473ffffffffffffffffffffffffffffffffffffffff1673ffffffffffffffffffffffffffffffffffffffff16815260200183815260200180602001828103825283818151815260200191508051906020019080838360005b83811015610db9578082015181840152602081019050610d9e565b50505050905090810190601f168015610de65780820380516001836020036101000a031916815260200191505b50945050505050600060405180830381600087803b1515610e0657600080fd5b6102c65a03f11515610e1757600080fd5b5050506006600084815260200190815260200160002060040154600760006006600087815260200190815260200160002060010160009054906101000a900473ffffffffffffffffffffffffffffffffffffffff1673ffffffffffffffffffffffffffffffffffffffff1673ffffffffffffffffffffffffffffffffffffffff1681526020019081526020016000206000828254019250508190555060066000848152602001908152602001600020600401543403600760006006600087815260200190815260200160002060010160009054906101000a900473ffffffffffffffffffffffffffffffffffffffff1673ffffffffffffffffffffffffffffffffffffffff1673ffffffffffffffffffffffffffffffffffffffff168152602001908152602001600020600082825401925050819055503373ffffffffffffffffffffffffffffffffffffffff167f0345c0bf4a4dc363b2a234f103af0f1063583de82abdc90af991d3e03e0fa8df846006600087815260200190815260200160002060030154604051808381526020018281526020019250505060405180910390a2505050565b600460029054906101000a900473ffffffffffffffffffffffffffffffffffffffff1681565b6000600760003373ffffffffffffffffffffffffffffffffffffffff1673ffffffffffffffffffffffffffffffffffffffff1681526020019081526020016000205490506000600760003373ffffffffffffffffffffffffffffffffffffffff1673ffffffffffffffffffffffffffffffffffffffff168152602001908152602001600020819055503373ffffffffffffffffffffffffffffffffffffffff166108fc829081150290604051600060405180830381858888f1935050505015156110ae57600080fd5b50565b33600160006101000a81548173ffffffffffffffffffffffffffffffffffffffff021916908373ffffffffffffffffffffffffffffffffffffffff1602179055506040805190810160405280600a81526020017f4554484552474f4f4453000000000000000000000000000000000000000000008152506002908051906020019061113d929190611990565b506040805190810160405280600581526020017f302e322e3200000000000000000000000000000000000000000000000000000081525060039080519060200190611189929190611990565b50565b6006600082815260200190815260200160002060070160009054906101000a900460ff1615156111bb57600080fd5b3373ffffffffffffffffffffffffffffffffffffffff166006600083815260200190815260200160002060010160009054906101000a900473ffffffffffffffffffffffffffffffffffffffff1673ffffffffffffffffffffffffffffffffffffffff1614151561122b57600080fd5b600082101561123957600080fd5b8160066000838152602001908152602001600020600401819055503373ffffffffffffffffffffffffffffffffffffffff167f89bf93c4a09f6b0f22d2364102c2e8172e9aed3c3fa2148f3c5bb068642118bf8383604051808381526020018281526020019250505060405180910390a25050565b6006600082815260200190815260200160002060070160009054906101000a900460ff1615156112dd57600080fd5b3373ffffffffffffffffffffffffffffffffffffffff166006600083815260200190815260200160002060010160009054906101000a900473ffffffffffffffffffffffffffffffffffffffff1673ffffffffffffffffffffffffffffffffffffffff1614151561134d57600080fd5b81600660008381526020019081526020016000206006019080519060200190611377929190611990565b503373ffffffffffffffffffffffffffffffffffffffff167f821e49ee6ff6ec305fc540c9705d981e443c6b58a8028b4936bada39a2f9ac0c83836040518080602001838152602001828103825284818151815260200191508051906020019080838360005b838110156113f85780820151818401526020810190506113dd565b50505050905090810190601f1680156114255780820380516001836020036101000a031916815260200191505b50935050505060405180910390a25050565b60038054600181600116156101000203166002900480601f0160208091040260200160405190810160405280929190818152602001828054600181600116156101000203166002900480156114cd5780601f106114a2576101008083540402835291602001916114cd565b820191906000526020600020905b8154815290600101906020018083116114b057829003601f168201915b505050505081565b600460019054906101000a900460ff1681565b6006600082815260200190815260200160002060070160009054906101000a900460ff16151561151757600080fd5b3373ffffffffffffffffffffffffffffffffffffffff166006600083815260200190815260200160002060010160009054906101000a900473ffffffffffffffffffffffffffffffffffffffff1673ffffffffffffffffffffffffffffffffffffffff1614151561158757600080fd5b816006600083815260200190815260200160002060010160006101000a81548173ffffffffffffffffffffffffffffffffffffffff021916908373ffffffffffffffffffffffffffffffffffffffff1602179055508173ffffffffffffffffffffffffffffffffffffffff163373ffffffffffffffffffffffffffffffffffffffff167fa545c3ed08273100efe722a6b2e8e9308c478b06c70101f90931d4db301f6971836040518082815260200191505060405180910390a35050565b6000809054906101000a900473ffffffffffffffffffffffffffffffffffffffff1681565b600560009054906101000a900473ffffffffffffffffffffffffffffffffffffffff1681565b60008060009054906101000a900473ffffffffffffffffffffffffffffffffffffffff1673ffffffffffffffffffffffffffffffffffffffff163373ffffffffffffffffffffffffffffffffffffffff161415156116ed57600080fd5b81905080600460026101000a81548173ffffffffffffffffffffffffffffffffffffffff021916908373ffffffffffffffffffffffffffffffffffffffff1602179055506001600460006101000a81548160ff0219169083151502179055505050565b60008060009054906101000a900473ffffffffffffffffffffffffffffffffffffffff1673ffffffffffffffffffffffffffffffffffffffff163373ffffffffffffffffffffffffffffffffffffffff161415156117ad57600080fd5b81905080600560006101000a81548173ffffffffffffffffffffffffffffffffffffffff021916908373ffffffffffffffffffffffffffffffffffffffff1602179055506001600460016101000a81548160ff0219169083151502179055505050565b6000809054906101000a900473ffffffffffffffffffffffffffffffffffffffff1673ffffffffffffffffffffffffffffffffffffffff163373ffffffffffffffffffffffffffffffffffffffff1614151561186b57600080fd5b600073ffffffffffffffffffffffffffffffffffffffff168173ffffffffffffffffffffffffffffffffffffffff16141515156118a757600080fd5b8073ffffffffffffffffffffffffffffffffffffffff166000809054906101000a900473ffffffffffffffffffffffffffffffffffffffff1673ffffffffffffffffffffffffffffffffffffffff167f8be0079c531659141344cd1fd0a4f28419497f9722a3daafe3b4186f6b6457e060405160405180910390a3806000806101000a81548173ffffffffffffffffffffffffffffffffffffffff021916908373ffffffffffffffffffffffffffffffffffffffff16021790555050565b60076020528060005260406000206000915090505481565b600460009054906101000a900460ff1681565b828054600181600116156101000203166002900490600052602060002090601f016020900481019282601f106119d157805160ff19168380011785556119ff565b828001600101855582156119ff579182015b828111156119fe5782518255916020019190600101906119e3565b5b509050611a0c9190611a24565b5090565b602060405190810160405280600081525090565b611a4691905b80821115611a42576000816000905550600101611a2a565b5090565b905600a165627a7a72305820627e443b7e60a458b8eb78317afe3ec58f9f48ad3a6ade8edbdb7f48470b80e10029",
  "source": "pragma solidity ^0.4.8;\n\n\nimport './GOODToken.sol';  //NFT\nimport './BasicNFTTokenMarket.sol';\n// see https://github.com/OpenZeppelin/zeppelin-solidity/tree/master/contracts\n\n// see https://github.com/decentraland/land/tree/master/contracts\n\n\ncontract EtherGoods is Ownable {\n\n    address owner;\n\n  //  string public standard = 'EtherGoods';\n    string public name = 'EtherGoods';\n    string public version;\n\n    bool public hasTokenContract = false;\n    bool public hasMarketContract = false;\n\n    // GOODToken contract that holds the registry of good instances\n    GoodToken public goods;\n\n    //allows users to buy and sell the NFT tokens\n    BasicNFTTokenMarket public goodTokenMarket;\n  //  goodTokenMarket.setTokenContract(goods);\n\n\n    //blueprint for a good\n    struct GoodType {\n       uint256 typeId; //the id of the asset blueprint\n       address creator;\n       uint256 totalSupply;\n       uint256 nextSupplyIndexToSell;\n       uint256 claimPrice; // can be changed by owner\n       bytes32  name;\n       string description;\n       bool initialized;\n       bool claimsEnabled; // can be changed by owner\n   }\n\n\n\n    mapping (uint256 => GoodType) goodTypes;\n\n\n    // https://github.com/ethereum/eips/issues/721\n    //mapping (bytes32 => Good) goods;\n\n\n\n\n    mapping (address => uint) public pendingWithdrawals;\n\n\t\tevent RegisterGood(address indexed to, uint256 typeId);\n\t\tevent RegistrationTransfer(address indexed from, address indexed to, uint256 typeId);\n\t\tevent ModifyClaimsEnable(address indexed owner,bool enabele,uint256 typeId);\n    event ModifyClaimsPrice(address indexed owner,uint price,uint256 typeId);\n    event ModifyGoodTypeDescription(address indexed owner,string description,uint256 typeId);\n\n\n    event ClaimGood(address indexed to, uint256 goodHash, uint256 supplyIndex);\n\t//cant index enough !\n\n\n    /* Initializes contract with initial supply tokens to the creator of the contract */\n    function EthergoodsMarket() public payable {\n        owner = msg.sender;\n        name = \"ETHERGOODS\";                                 // Set the name for display purposes\n        version = \"0.2.2\";\n    }\n\n\n\n    function setTokenContractAddress(address _address) external onlyOwner {\n        GoodToken goodTokenContract = GoodToken(_address);\n\n        // NOTE: verify that a contract is what we expect - https://github.com/Lunyr/crowdsale-contracts/blob/cfadd15986c30521d8ba7d5b6f57b4fefcc7ac38/contracts/LunyrToken.sol#L117\n        //require(goodTokenContract.isGoodToken);\n\n        // Set the new contract address\n        goods = goodTokenContract;\n        hasTokenContract = true;\n    }\n\n    function setMarketContractAddress(address _address) external onlyOwner {\n        BasicNFTTokenMarket basicMarketContract = BasicNFTTokenMarket(_address);\n\n        // NOTE: verify that a contract is what we expect - https://github.com/Lunyr/crowdsale-contracts/blob/cfadd15986c30521d8ba7d5b6f57b4fefcc7ac38/contracts/LunyrToken.sol#L117\n        //require(basicMarketContract.isNFTMarket);\n\n        // Set the new contract address\n        goodTokenMarket = basicMarketContract;\n        hasMarketContract = true;\n    }\n\n\n\t\tfunction registerNewGoodType( bytes32  goodTypeName, string description, uint256 totalSupply, uint256 claimPrice ) public\n\t\t{\n      if( (goodTypeName).length > 32) revert();\n      uint256 typeId = uint256(keccak256( goodTypeName ));\n\n\t\t\t//make sure the goodtype doesnt exist\n\t\t\tif(goodTypes[typeId].initialized) revert();\n\t\t\tif(totalSupply < 1) revert();\n\t\t\tif(claimPrice < 0) revert();\n\n\t\t\tgoodTypes[typeId].initialized = true;\n\t\t\tgoodTypes[typeId].creator = msg.sender; //usually msg.sender\n\n\t\t\tgoodTypes[typeId].totalSupply = totalSupply;\n\t\t\tgoodTypes[typeId].nextSupplyIndexToSell = 0;\n      goodTypes[typeId].typeId = typeId;\n\n      goodTypes[typeId].name = goodTypeName;\n      goodTypes[typeId].description = description;\n\n\t\t\tgoodTypes[typeId].claimPrice = claimPrice; //price in wei to buy an instance\n      goodTypes[typeId].claimsEnabled = true; //owners switch for allowing sales\n\n\t\t\tRegisterGood(msg.sender,typeId);\n\t\t}\n\n  /*  function stringToBytes32(string memory source) public returns (bytes32 result)  {\n        assembly {\n            result := mload(add(source, 32))\n        }\n    }*/\n\n    function setGoodTypeDescription(string description, uint256 typeId) public\n\t\t{\n\t\t\t\tif(!goodTypes[typeId].initialized) revert();\n\t\t\t\tif (goodTypes[typeId].creator != msg.sender) revert(); //must own the registration to transfer it\n\n\t\t\t\tgoodTypes[typeId].description = description;\n\n\t\t\t\tModifyGoodTypeDescription(msg.sender,description,typeId);\n\n\t\t}\n\n\t\t//modifying existing goods registrations\n\t\tfunction setClaimsEnabled(bool enabled, uint256 typeId) public\n\t\t{\n\t\t\t\tif(!goodTypes[typeId].initialized) revert();\n\t\t\t\tif (goodTypes[typeId].creator != msg.sender) revert(); //must own the registration to transfer it\n\n\t\t\t\tgoodTypes[typeId].claimsEnabled = enabled;\n\n\t\t\t\tModifyClaimsEnable(msg.sender,enabled,typeId);\n\n\t\t}\n\n\t\tfunction setClaimsPrice(uint claimPrice, uint256 typeId) public\n\t\t{\n\t\t\t\tif(!goodTypes[typeId].initialized) revert();\n\t\t\t\tif(goodTypes[typeId].creator != msg.sender) revert(); //must own the registration to transfer it\n        if(claimPrice < 0) revert();\n\n\t\t\t\tgoodTypes[typeId].claimPrice = claimPrice;\n\n\t\t\t\tModifyClaimsPrice(msg.sender,claimPrice,typeId);\n\n\t\t}\n\n\t\tfunction transferRegistration(address to, uint256 typeId) public\n\t\t{\n\t\t\t\tif(!goodTypes[typeId].initialized) revert();\n\t\t\t\tif(goodTypes[typeId].creator != msg.sender) revert(); //must own the registration to transfer it\n\n\t\t\t\tgoodTypes[typeId].creator = to;\n\n\t\t\t\tRegistrationTransfer(msg.sender,to,typeId);\n\n\t\t}\n\n\n\n       //uniqueHash =typeId\n\t\tfunction claimGood(uint256 typeId) public payable\n\t\t{\n\t\t\tif(!goodTypes[typeId].initialized) revert(); //if the good isnt registered\n\t\t\tif(goodTypes[typeId].nextSupplyIndexToSell >= goodTypes[typeId].totalSupply) revert(); // the good is all claimed\n\n      if (msg.value < goodTypes[typeId].claimPrice) revert();\n      if (goodTypes[typeId].claimPrice < 0) revert();\n      if (msg.value < 0) revert();\n      if (goods.exists(typeId, goodTypes[typeId].nextSupplyIndexToSell)) revert();\n\n      uint instanceId = goodTypes[typeId].nextSupplyIndexToSell;\n      goodTypes[typeId].nextSupplyIndexToSell++;\n\n      string memory metadata;\n\t    goods.claimGoodToken(msg.sender,goods.buildTokenId(typeId,instanceId),metadata);\n\n      //Content creator gets claim eth\n      pendingWithdrawals[goodTypes[typeId].creator] += goodTypes[typeId].claimPrice;\n\n      //refund overspends\n      pendingWithdrawals[goodTypes[typeId].creator] += (msg.value - goodTypes[typeId].claimPrice);\n\n\n\t\t\tClaimGood(msg.sender, typeId, goodTypes[typeId].nextSupplyIndexToSell );\n\n\n\n\n\t\t}\n\n\n\n\n    function withdrawPendingBalance() public\n    {\n      uint256 amountToWithdraw = pendingWithdrawals[msg.sender];\n      pendingWithdrawals[msg.sender] = 0;\n      msg.sender.transfer( amountToWithdraw );\n    }\n\n\n}\n",
  "sourcePath": "/home/andy/dev/ethergoods/contracts/EtherGoods.sol",
  "compiler": {
    "name": "solc",
    "version": "0.4.18+commit.9cf6e910.Emscripten.clang"
  },
  "schemaVersion": "1.0.1",
  "updatedAt": "2018-01-10T01:20:40.850Z"
}