{
  "contractName": "EtherGoods",
  "abi": [
    {
      "constant": true,
      "inputs": [
        {
          "name": "name",
          "type": "string"
        },
        {
          "name": "description",
          "type": "string"
        },
        {
          "name": "totalSupply",
          "type": "uint16"
        },
        {
          "name": "claimPrice",
          "type": "uint256"
        }
      ],
      "name": "name",
      "outputs": [
        {
          "name": "",
          "type": "string"
        }
      ],
      "payable": false,
      "type": "function",
      "stateMutability": "view"
    },
    {
      "constant": false,
      "inputs": [
        {
          "name": "enabled",
          "type": "bool"
        },
        {
          "name": "typeId",
          "type": "uint256"
        }
      ],
      "name": "setClaimsEnabled",
      "outputs": [],
      "payable": false,
      "type": "function",
      "stateMutability": "nonpayable"
    },
    {
      "constant": false,
      "inputs": [
        {
          "name": "typeId",
          "type": "uint256"
        }
      ],
      "name": "claimGood",
      "outputs": [
        {
          "name": "",
          "type": "string"
        }
      ],
      "payable": true,
      "type": "function",
      "stateMutability": "payable"
    },
    {
      "constant": true,
      "inputs": [
        {
          "name": "to",
          "type": "address"
        },
        {
          "name": "uniqueHash",
          "type": "bytes32"
        }
      ],
      "name": "goods",
      "outputs": [
        {
          "name": "",
          "type": "address"
        }
      ],
      "payable": false,
      "type": "function",
      "stateMutability": "view"
    },
    {
      "constant": false,
      "inputs": [
        {
          "name": "uniqueHash",
          "type": "bytes32"
        }
      ],
      "name": "withdrawPendingBalance",
      "outputs": [],
      "payable": false,
      "type": "function",
      "stateMutability": "nonpayable"
    },
    {
      "constant": false,
      "inputs": [
        {
          "name": "name",
          "type": "string"
        },
        {
          "name": "description",
          "type": "string"
        },
        {
          "name": "totalSupply",
          "type": "uint16"
        },
        {
          "name": "claimPrice",
          "type": "uint256"
        }
      ],
      "name": "registerNewGoodType",
      "outputs": [],
      "payable": false,
      "type": "function",
      "stateMutability": "nonpayable"
    },
    {
      "constant": false,
      "inputs": [
        {
          "name": "uniqueHash",
          "type": "bytes32"
        },
        {
          "name": "to",
          "type": "address"
        }
      ],
      "name": "EthergoodsMarket",
      "outputs": [
        {
          "name": "amount",
          "type": "uint256"
        }
      ],
      "payable": true,
      "type": "function",
      "stateMutability": "payable"
    },
    {
      "constant": false,
      "inputs": [
        {
          "name": "claimPrice",
          "type": "uint256"
        },
        {
          "name": "typeId",
          "type": "uint256"
        }
      ],
      "name": "setClaimsPrice",
      "outputs": [],
      "payable": false,
      "type": "function",
      "stateMutability": "nonpayable"
    },
    {
      "constant": false,
      "inputs": [
        {
          "name": "description",
          "type": "string"
        },
        {
          "name": "typeId",
          "type": "uint256"
        }
      ],
      "name": "setGoodTypeDescription",
      "outputs": [],
      "payable": false,
      "type": "function",
      "stateMutability": "nonpayable"
    },
    {
      "constant": true,
      "inputs": [
        {
          "name": "description",
          "type": "string"
        },
        {
          "name": "uniqueHash",
          "type": "bytes32"
        }
      ],
      "name": "version",
      "outputs": [
        {
          "name": "",
          "type": "string"
        }
      ],
      "payable": false,
      "type": "function",
      "stateMutability": "view"
    },
    {
      "constant": false,
      "inputs": [
        {
          "name": "to",
          "type": "address"
        },
        {
          "name": "typeId",
          "type": "uint256"
        }
      ],
      "name": "transferRegistration",
      "outputs": [],
      "payable": false,
      "type": "function",
      "stateMutability": "nonpayable"
    },
    {
      "constant": true,
      "inputs": [],
      "name": "goodTokenMarket",
      "outputs": [
        {
          "name": "",
          "type": "address"
        }
      ],
      "payable": false,
      "type": "function",
      "stateMutability": "view"
    },
    {
      "constant": true,
      "inputs": [
        {
          "name": "",
          "type": "address"
        }
      ],
      "name": "pendingWithdrawals",
      "outputs": [
        {
          "name": "",
          "type": "uint256"
        }
      ],
      "payable": false,
      "type": "function",
      "stateMutability": "view"
    },
    {
      "constant": false,
      "inputs": [
        {
          "name": "to",
          "type": "address",
          "indexed": true
        },
        {
          "name": "typeId",
          "type": "uint256",
          "indexed": false
        }
      ],
      "name": "RegisterGood",
      "outputs": [],
      "payable": false,
      "type": "event",
      "anonymous": false
    },
    {
      "constant": false,
      "inputs": [
        {
          "name": "from",
          "type": "address",
          "indexed": true
        },
        {
          "indexed": true,
          "name": "to",
          "type": "address"
        },
        {
          "indexed": false,
          "name": "typeId",
          "type": "uint256"
        }
      ],
      "name": "RegistrationTransfer",
      "outputs": [],
      "payable": false,
      "type": "event",
      "anonymous": false
    },
    {
      "constant": true,
      "inputs": [
        {
          "name": "owner",
          "type": "address",
          "indexed": true
        },
        {
          "indexed": false,
          "name": "enabele",
          "type": "bool"
        },
        {
          "indexed": false,
          "name": "typeId",
          "type": "uint256"
        }
      ],
      "name": "ModifyClaimsEnable",
      "outputs": [
        {
          "name": "initialized",
          "type": "bool"
        },
        {
          "name": "creator",
          "type": "address"
        },
        {
          "name": "uniqueHash",
          "type": "bytes32"
        },
        {
          "name": "ipfsHash",
          "type": "bytes"
        },
        {
          "name": "description",
          "type": "string"
        },
        {
          "name": "totalSupply",
          "type": "uint16"
        },
        {
          "name": "nextSupplyIndexToSell",
          "type": "uint16"
        },
        {
          "name": "claimPrice",
          "type": "uint256"
        },
        {
          "name": "claimsEnabled",
          "type": "bool"
        }
      ],
      "payable": false,
      "type": "event",
      "anonymous": false
    },
    {
      "constant": false,
      "inputs": [
        {
          "name": "owner",
          "type": "address",
          "indexed": true
        },
        {
          "indexed": false,
          "name": "price",
          "type": "uint256"
        },
        {
          "indexed": false,
          "name": "typeId",
          "type": "uint256"
        }
      ],
      "name": "ModifyClaimsPrice",
      "outputs": [],
      "payable": false,
      "type": "event",
      "anonymous": false
    },
    {
      "constant": false,
      "inputs": [
        {
          "name": "owner",
          "type": "address",
          "indexed": true
        },
        {
          "indexed": false,
          "name": "description",
          "type": "string"
        },
        {
          "indexed": false,
          "name": "typeId",
          "type": "uint256"
        }
      ],
      "name": "ModifyGoodTypeDescription",
      "outputs": [],
      "payable": true,
      "type": "event",
      "anonymous": false
    },
    {
      "constant": false,
      "inputs": [
        {
          "name": "to",
          "type": "address",
          "indexed": true
        },
        {
          "indexed": false,
          "name": "goodHash",
          "type": "uint256"
        },
        {
          "indexed": false,
          "name": "supplyIndex",
          "type": "uint256"
        }
      ],
      "name": "ClaimGood",
      "outputs": [
        {
          "name": "result",
          "type": "bytes32"
        }
      ],
      "payable": false,
      "type": "event",
      "anonymous": false
    },
    {
      "constant": false,
      "inputs": [
        {
          "name": "uniqueHash",
          "type": "bytes32"
        },
        {
          "name": "minSalePriceInWei",
          "type": "uint256"
        },
        {
          "name": "toAddress",
          "type": "address"
        }
      ],
      "name": "offerSupplyForSaleToAddress",
      "outputs": [],
      "payable": false,
      "type": "function"
    },
    {
      "constant": true,
      "inputs": [
        {
          "name": "",
          "type": "bytes32"
        }
      ],
      "name": "supplyBids",
      "outputs": [
        {
          "name": "hasBid",
          "type": "bool"
        },
        {
          "name": "uniqueHash",
          "type": "bytes32"
        },
        {
          "name": "bidder",
          "type": "address"
        },
        {
          "name": "value",
          "type": "uint256"
        }
      ],
      "payable": false,
      "type": "function"
    },
    {
      "constant": false,
      "inputs": [
        {
          "name": "uniqueHash",
          "type": "bytes32"
        }
      ],
      "name": "buySupply",
      "outputs": [],
      "payable": true,
      "type": "function"
    },
    {
      "constant": true,
      "inputs": [
        {
          "name": "",
          "type": "bytes32"
        }
      ],
      "name": "supplyOfferedForSale",
      "outputs": [
        {
          "name": "isForSale",
          "type": "bool"
        },
        {
          "name": "uniqueHash",
          "type": "bytes32"
        },
        {
          "name": "seller",
          "type": "address"
        },
        {
          "name": "minValue",
          "type": "uint256"
        },
        {
          "name": "onlySellTo",
          "type": "address"
        }
      ],
      "payable": false,
      "type": "function"
    },
    {
      "constant": true,
      "inputs": [
        {
          "name": "",
          "type": "address"
        }
      ],
      "name": "pendingWithdrawals",
      "outputs": [
        {
          "name": "",
          "type": "uint256"
        }
      ],
      "payable": false,
      "type": "function"
    },
    {
      "anonymous": false,
      "inputs": [
        {
          "indexed": true,
          "name": "to",
          "type": "address"
        },
        {
          "indexed": false,
          "name": "goodHash",
          "type": "bytes32"
        }
      ],
      "name": "RegisterGood",
      "type": "event"
    },
    {
      "anonymous": false,
      "inputs": [
        {
          "indexed": true,
          "name": "from",
          "type": "address"
        },
        {
          "indexed": true,
          "name": "to",
          "type": "address"
        },
        {
          "indexed": false,
          "name": "goodHash",
          "type": "bytes32"
        }
      ],
      "name": "RegistrationTransfer",
      "type": "event"
    },
    {
      "anonymous": false,
      "inputs": [
        {
          "indexed": true,
          "name": "owner",
          "type": "address"
        },
        {
          "indexed": false,
          "name": "enabele",
          "type": "bool"
        },
        {
          "indexed": false,
          "name": "goodHash",
          "type": "bytes32"
        }
      ],
      "name": "ModifyClaimsEnable",
      "type": "event"
    },
    {
      "anonymous": false,
      "inputs": [
        {
          "indexed": true,
          "name": "owner",
          "type": "address"
        },
        {
          "indexed": false,
          "name": "price",
          "type": "uint256"
        },
        {
          "indexed": false,
          "name": "goodHash",
          "type": "bytes32"
        }
      ],
      "name": "ModifyClaimsPrice",
      "type": "event"
    },
    {
      "anonymous": false,
      "inputs": [
        {
          "indexed": true,
          "name": "owner",
          "type": "address"
        },
        {
          "indexed": false,
          "name": "description",
          "type": "string"
        },
        {
          "indexed": false,
          "name": "goodHash",
          "type": "bytes32"
        }
      ],
      "name": "ModifyGoodDescription",
      "type": "event"
    },
    {
      "anonymous": false,
      "inputs": [
        {
          "indexed": true,
          "name": "to",
          "type": "address"
        },
        {
          "indexed": false,
          "name": "goodHash",
          "type": "bytes32"
        },
        {
          "indexed": false,
          "name": "supplyIndex",
          "type": "uint32"
        }
      ],
      "name": "ClaimGood",
      "type": "event"
    },
    {
      "anonymous": false,
      "inputs": [
        {
          "indexed": true,
          "name": "uniqueHash",
          "type": "bytes32"
        },
        {
          "indexed": true,
          "name": "from",
          "type": "address"
        },
        {
          "indexed": true,
          "name": "to",
          "type": "address"
        },
        {
          "indexed": false,
          "name": "amount",
          "type": "uint256"
        }
      ],
      "name": "TransferSupply",
      "type": "event"
    },
    {
      "anonymous": false,
      "inputs": [
        {
          "indexed": true,
          "name": "uniqueHash",
          "type": "bytes32"
        },
        {
          "indexed": false,
          "name": "minValue",
          "type": "uint256"
        },
        {
          "indexed": true,
          "name": "toAddress",
          "type": "address"
        }
      ],
      "name": "SupplyOffered",
      "type": "event"
    },
    {
      "anonymous": false,
      "inputs": [
        {
          "indexed": true,
          "name": "uniqueHash",
          "type": "bytes32"
        },
        {
          "indexed": false,
          "name": "value",
          "type": "uint256"
        },
        {
          "indexed": true,
          "name": "fromAddress",
          "type": "address"
        }
      ],
      "name": "SupplyBidEntered",
      "type": "event"
    },
    {
      "anonymous": false,
      "inputs": [
        {
          "indexed": true,
          "name": "uniqueHash",
          "type": "bytes32"
        },
        {
          "indexed": false,
          "name": "value",
          "type": "uint256"
        },
        {
          "indexed": true,
          "name": "fromAddress",
          "type": "address"
        }
      ],
      "name": "SupplyBidWithdrawn",
      "type": "event"
    },
    {
      "anonymous": false,
      "inputs": [
        {
          "indexed": true,
          "name": "uniqueHash",
          "type": "bytes32"
        },
        {
          "indexed": false,
          "name": "value",
          "type": "uint256"
        },
        {
          "indexed": false,
          "name": "fromAddress",
          "type": "address"
        },
        {
          "indexed": true,
          "name": "toAddress",
          "type": "address"
        }
      ],
      "name": "SupplyBought",
      "type": "event"
    },
    {
      "anonymous": false,
      "inputs": [
        {
          "indexed": true,
          "name": "uniqueHash",
          "type": "bytes32"
        },
        {
          "indexed": false,
          "name": "value",
          "type": "uint256"
        },
        {
          "indexed": true,
          "name": "fromAddress",
          "type": "address"
        },
        {
          "indexed": false,
          "name": "toAddress",
          "type": "address"
        }
      ],
      "name": "SupplySold",
      "type": "event"
    },
    {
      "anonymous": false,
      "inputs": [
        {
          "indexed": true,
          "name": "uniqueHash",
          "type": "bytes32"
        }
      ],
      "name": "SupplyNoLongerForSale",
      "type": "event"
    }
  ],
  "bytecode": "0x60606040526040805190810160405280600a81526020017f4574686572476f6f647300000000000000000000000000000000000000000000815250600190805190602001906200005192919062000064565b5034156200005e57600080fd5b62000113565b828054600181600116156101000203166002900490600052602060002090601f016020900481019282601f10620000a757805160ff1916838001178555620000d8565b82800160010185558215620000d8579182015b82811115620000d7578251825591602001919060010190620000ba565b5b509050620000e79190620000eb565b5090565b6200011091905b808211156200010c576000816000905550600101620000f2565b5090565b90565b6116f680620001236000396000f3006060604052600436106100c5576000357c0100000000000000000000000000000000000000000000000000000000900463ffffffff16806306fdde03146100ca5780630bd42e3e14610158578063244814ba146101865780632702182b1461019e57806334829bf4146101f357806335e8cdd814610208578063395647cc146102be5780633dd8d5a5146102c85780634db7bd8e146102f457806354fd4d501461035a5780638a53f242146103e8578063a55acd0b1461042a578063f3f437031461047f575b600080fd5b34156100d557600080fd5b6100dd6104cc565b6040518080602001828103825283818151815260200191508051906020019080838360005b8381101561011d578082015181840152602081019050610102565b50505050905090810190601f16801561014a5780820380516001836020036101000a031916815260200191505b509250505060405180910390f35b341561016357600080fd5b6101846004808035151590602001909190803590602001909190505061056a565b005b61019c6004808035906020019091905050610695565b005b34156101a957600080fd5b6101b1610c94565b604051808273ffffffffffffffffffffffffffffffffffffffff1673ffffffffffffffffffffffffffffffffffffffff16815260200191505060405180910390f35b34156101fe57600080fd5b610206610cba565b005b341561021357600080fd5b6102bc600480803590602001908201803590602001908080601f0160208091040260200160405190810160405280939291908181526020018383808284378201915050505050509190803590602001908201803590602001908080601f0160208091040260200160405190810160405280939291908181526020018383808284378201915050505050509190803561ffff16906020019091908035906020019091905050610dce565b005b6102c6611053565b005b34156102d357600080fd5b6102f2600480803590602001909190803590602001909190505061112d565b005b34156102ff57600080fd5b610358600480803590602001908201803590602001908080601f0160208091040260200160405190810160405280939291908181526020018383808284378201915050505050509190803590602001909190505061124f565b005b341561036557600080fd5b61036d6113d8565b6040518080602001828103825283818151815260200191508051906020019080838360005b838110156103ad578082015181840152602081019050610392565b50505050905090810190601f1680156103da5780820380516001836020036101000a031916815260200191505b509250505060405180910390f35b34156103f357600080fd5b610428600480803573ffffffffffffffffffffffffffffffffffffffff16906020019091908035906020019091905050611476565b005b341561043557600080fd5b61043d6115d3565b604051808273ffffffffffffffffffffffffffffffffffffffff1673ffffffffffffffffffffffffffffffffffffffff16815260200191505060405180910390f35b341561048a57600080fd5b6104b6600480803573ffffffffffffffffffffffffffffffffffffffff169060200190919050506115f9565b6040518082815260200191505060405180910390f35b60018054600181600116156101000203166002900480601f0160208091040260200160405190810160405280929190818152602001828054600181600116156101000203166002900480156105625780601f1061053757610100808354040283529160200191610562565b820191906000526020600020905b81548152906001019060200180831161054557829003601f168201915b505050505081565b6005600082815260200190815260200160002060030160009054906101000a900460ff16151561059957600080fd5b3373ffffffffffffffffffffffffffffffffffffffff166005600083815260200190815260200160002060010160009054906101000a900473ffffffffffffffffffffffffffffffffffffffff1673ffffffffffffffffffffffffffffffffffffffff1614151561060957600080fd5b816005600083815260200190815260200160002060050160006101000a81548160ff0219169083151502179055503373ffffffffffffffffffffffffffffffffffffffff167f7897f6ee6e11a2f27cccc9ae272b8c9875098853088c9f8a5b9f32fc0776927e838360405180831515151581526020018281526020019250505060405180910390a25050565b61069d611611565b6005600083815260200190815260200160002060030160009054906101000a900460ff1615156106cc57600080fd5b6005600083815260200190815260200160002060010160149054906101000a900461ffff1661ffff166005600084815260200190815260200160002060010160169054906101000a900461ffff1661ffff1610151561072a57600080fd5b600560008381526020019081526020016000206004015434101561074d57600080fd5b60006005600084815260200190815260200160002060040154101561077157600080fd5b600034101561077f57600080fd5b600360009054906101000a900473ffffffffffffffffffffffffffffffffffffffff1673ffffffffffffffffffffffffffffffffffffffff1663579394f2836005600086815260200190815260200160002060010160169054906101000a900461ffff166000604051602001526040518363ffffffff167c0100000000000000000000000000000000000000000000000000000000028152600401808381526020018261ffff16815260200192505050602060405180830381600087803b151561084857600080fd5b6102c65a03f1151561085957600080fd5b505050604051805190501561086d57600080fd5b600360009054906101000a900473ffffffffffffffffffffffffffffffffffffffff1673ffffffffffffffffffffffffffffffffffffffff1663f096850d33600360009054906101000a900473ffffffffffffffffffffffffffffffffffffffff1673ffffffffffffffffffffffffffffffffffffffff166326b47687866005600089815260200190815260200160002060010160169054906101000a900461ffff166000604051602001526040518363ffffffff167c0100000000000000000000000000000000000000000000000000000000028152600401808381526020018261ffff16815260200192505050602060405180830381600087803b151561097557600080fd5b6102c65a03f1151561098657600080fd5b50505060405180519050846040518463ffffffff167c0100000000000000000000000000000000000000000000000000000000028152600401808473ffffffffffffffffffffffffffffffffffffffff1673ffffffffffffffffffffffffffffffffffffffff16815260200183815260200180602001828103825283818151815260200191508051906020019080838360005b83811015610a34578082015181840152602081019050610a19565b50505050905090810190601f168015610a615780820380516001836020036101000a031916815260200191505b50945050505050600060405180830381600087803b1515610a8157600080fd5b6102c65a03f11515610a9257600080fd5b5050506005600083815260200190815260200160002060040154600660006005600086815260200190815260200160002060010160009054906101000a900473ffffffffffffffffffffffffffffffffffffffff1673ffffffffffffffffffffffffffffffffffffffff1673ffffffffffffffffffffffffffffffffffffffff1681526020019081526020016000206000828254019250508190555060056000838152602001908152602001600020600401543403600660006005600086815260200190815260200160002060010160009054906101000a900473ffffffffffffffffffffffffffffffffffffffff1673ffffffffffffffffffffffffffffffffffffffff1673ffffffffffffffffffffffffffffffffffffffff168152602001908152602001600020600082825401925050819055503373ffffffffffffffffffffffffffffffffffffffff167f0345c0bf4a4dc363b2a234f103af0f1063583de82abdc90af991d3e03e0fa8df836005600086815260200190815260200160002060010160169054906101000a900461ffff16604051808381526020018261ffff1681526020019250505060405180910390a260056000838152602001908152602001600020600101601681819054906101000a900461ffff168092919060010191906101000a81548161ffff021916908361ffff160217905550505050565b600360009054906101000a900473ffffffffffffffffffffffffffffffffffffffff1681565b6000600660003373ffffffffffffffffffffffffffffffffffffffff1673ffffffffffffffffffffffffffffffffffffffff16815260200190815260200160002054111515610d0857600080fd5b3373ffffffffffffffffffffffffffffffffffffffff166108fc600660003373ffffffffffffffffffffffffffffffffffffffff1673ffffffffffffffffffffffffffffffffffffffff168152602001908152602001600020549081150290604051600060405180830381858888f193505050501515610d8757600080fd5b6000600660003373ffffffffffffffffffffffffffffffffffffffff1673ffffffffffffffffffffffffffffffffffffffff16815260200190815260200160002081905550565b6000846040518082805190602001908083835b602083101515610e065780518252602082019150602081019050602083039250610de1565b6001836020036101000a03801982511681845116808217855250505050505090500191505060405180910390206001900490506005600082815260200190815260200160002060030160009054906101000a900460ff1615610e6757600080fd5b60018361ffff161015610e7957600080fd5b6000821015610e8757600080fd5b60016005600083815260200190815260200160002060030160006101000a81548160ff021916908315150217905550336005600083815260200190815260200160002060010160006101000a81548173ffffffffffffffffffffffffffffffffffffffff021916908373ffffffffffffffffffffffffffffffffffffffff160217905550826005600083815260200190815260200160002060010160146101000a81548161ffff021916908361ffff16021790555060006005600083815260200190815260200160002060010160166101000a81548161ffff021916908361ffff16021790555080600560008381526020019081526020016000206000018190555083600560008381526020019081526020016000206002019080519060200190610fb3929190611625565b5081600560008381526020019081526020016000206004018190555060016005600083815260200190815260200160002060050160006101000a81548160ff0219169083151502179055503373ffffffffffffffffffffffffffffffffffffffff167fd54b51a2cbb8aa768a60b2dbbcc6b37eb1fd1932a1fcd20aed2bf16ac54bbc8f826040518082815260200191505060405180910390a25050505050565b336000806101000a81548173ffffffffffffffffffffffffffffffffffffffff021916908373ffffffffffffffffffffffffffffffffffffffff1602179055506040805190810160405280600a81526020017f4554484552474f4f445300000000000000000000000000000000000000000000815250600190805190602001906110de929190611625565b506040805190810160405280600581526020017f302e322e320000000000000000000000000000000000000000000000000000008152506002908051906020019061112a929190611625565b50565b6005600082815260200190815260200160002060030160009054906101000a900460ff16151561115c57600080fd5b3373ffffffffffffffffffffffffffffffffffffffff166005600083815260200190815260200160002060010160009054906101000a900473ffffffffffffffffffffffffffffffffffffffff1673ffffffffffffffffffffffffffffffffffffffff161415156111cc57600080fd5b60008210156111da57600080fd5b8160056000838152602001908152602001600020600401819055503373ffffffffffffffffffffffffffffffffffffffff167f89bf93c4a09f6b0f22d2364102c2e8172e9aed3c3fa2148f3c5bb068642118bf8383604051808381526020018281526020019250505060405180910390a25050565b6005600082815260200190815260200160002060030160009054906101000a900460ff16151561127e57600080fd5b3373ffffffffffffffffffffffffffffffffffffffff166005600083815260200190815260200160002060010160009054906101000a900473ffffffffffffffffffffffffffffffffffffffff1673ffffffffffffffffffffffffffffffffffffffff161415156112ee57600080fd5b81600560008381526020019081526020016000206002019080519060200190611318929190611625565b503373ffffffffffffffffffffffffffffffffffffffff167f821e49ee6ff6ec305fc540c9705d981e443c6b58a8028b4936bada39a2f9ac0c83836040518080602001838152602001828103825284818151815260200191508051906020019080838360005b8381101561139957808201518184015260208101905061137e565b50505050905090810190601f1680156113c65780820380516001836020036101000a031916815260200191505b50935050505060405180910390a25050565b60028054600181600116156101000203166002900480601f01602080910402602001604051908101604052809291908181526020018280546001816001161561010002031660029004801561146e5780601f106114435761010080835404028352916020019161146e565b820191906000526020600020905b81548152906001019060200180831161145157829003601f168201915b505050505081565b6005600082815260200190815260200160002060030160009054906101000a900460ff1615156114a557600080fd5b3373ffffffffffffffffffffffffffffffffffffffff166005600083815260200190815260200160002060010160009054906101000a900473ffffffffffffffffffffffffffffffffffffffff1673ffffffffffffffffffffffffffffffffffffffff1614151561151557600080fd5b816005600083815260200190815260200160002060010160006101000a81548173ffffffffffffffffffffffffffffffffffffffff021916908373ffffffffffffffffffffffffffffffffffffffff1602179055508173ffffffffffffffffffffffffffffffffffffffff163373ffffffffffffffffffffffffffffffffffffffff167fa545c3ed08273100efe722a6b2e8e9308c478b06c70101f90931d4db301f6971836040518082815260200191505060405180910390a35050565b600460009054906101000a900473ffffffffffffffffffffffffffffffffffffffff1681565b60066020528060005260406000206000915090505481565b602060405190810160405280600081525090565b828054600181600116156101000203166002900490600052602060002090601f016020900481019282601f1061166657805160ff1916838001178555611694565b82800160010185558215611694579182015b82811115611693578251825591602001919060010190611678565b5b5090506116a191906116a5565b5090565b6116c791905b808211156116c35760008160009055506001016116ab565b5090565b905600a165627a7a72305820b1d4145bec45c785cf702b22088cc947e590b392a8a892f213ff8969ffb06ed10029",
  "source": "pragma solidity ^0.4.8;\n\n\nimport './GOODToken.sol';  //NFT\nimport './BasicNFTTokenMarket.sol';\n// see https://github.com/OpenZeppelin/zeppelin-solidity/tree/master/contracts\n\n// see https://github.com/decentraland/land/tree/master/contracts\n\n\ncontract EtherGoods {\n\n    address owner;\n\n  //  string public standard = 'EtherGoods';\n    string public name = 'EtherGoods';\n    string public version;\n\n    // GOODToken contract that holds the registry of good instances\n    GoodToken public goods;\n\n    //allows users to buy and sell the NFT tokens\n    BasicNFTTokenMarket public goodTokenMarket;\n  //  goodTokenMarket.setTokenContract(goods);\n\n\n    //blueprint for a good\n    struct GoodType {\n       uint256 typeId; //the id of the asset blueprint\n       address creator;\n       uint16 totalSupply;\n       uint16 nextSupplyIndexToSell;\n       string description;\n       bool initialized;\n       uint claimPrice; // can be changed by owner\n       bool claimsEnabled; // can be changed by owner\n   }\n\n\n\n    mapping (uint256 => GoodType) goodTypes;\n\n\n    // https://github.com/ethereum/eips/issues/721\n    //mapping (bytes32 => Good) goods;\n\n\n\n\n    mapping (address => uint) public pendingWithdrawals;\n\n\t\tevent RegisterGood(address indexed to, uint256 typeId);\n\t\tevent RegistrationTransfer(address indexed from, address indexed to, uint256 typeId);\n\t\tevent ModifyClaimsEnable(address indexed owner,bool enabele,uint256 typeId);\n    event ModifyClaimsPrice(address indexed owner,uint price,uint256 typeId);\n    event ModifyGoodTypeDescription(address indexed owner,string description,uint256 typeId);\n\n\n    event ClaimGood(address indexed to, uint256 goodHash, uint256 supplyIndex);\n\t//cant index enough !\n\n\n    /* Initializes contract with initial supply tokens to the creator of the contract */\n    function EthergoodsMarket() public payable {\n        owner = msg.sender;\n        name = \"ETHERGOODS\";                                 // Set the name for display purposes\n        version = \"0.2.2\";\n    }\n\n\n\t\tfunction registerNewGoodType( string name, string description, uint16 totalSupply, uint claimPrice ) public\n\t\t{\n    //  if(bytes(name).length > 32) revert();\n      uint256 typeId = uint256(keccak256( name ));\n\n\t\t\t//make sure the goodtype doesnt exist\n\t\t\tif(goodTypes[typeId].initialized) revert();\n\t\t\tif(totalSupply < 1) revert();\n\t\t\tif(claimPrice < 0) revert();\n\n\t\t\tgoodTypes[typeId].initialized = true;\n\t\t\tgoodTypes[typeId].creator = msg.sender; //usually msg.sender\n\n\t\t\tgoodTypes[typeId].totalSupply = totalSupply;\n\t\t\tgoodTypes[typeId].nextSupplyIndexToSell = 0;\n      goodTypes[typeId].typeId = typeId;\n      goodTypes[typeId].description = description;\n\n\t\t\tgoodTypes[typeId].claimPrice = claimPrice; //price in wei to buy an instance\n      goodTypes[typeId].claimsEnabled = true; //owners switch for allowing sales\n\n\t\t\tRegisterGood(msg.sender,typeId);\n\t\t}\n\n  /*  function stringToBytes32(string memory source) public returns (bytes32 result)  {\n        assembly {\n            result := mload(add(source, 32))\n        }\n    }*/\n\n    function setGoodTypeDescription(string description, uint256 typeId) public\n\t\t{\n\t\t\t\tif(!goodTypes[typeId].initialized) revert();\n\t\t\t\tif (goodTypes[typeId].creator != msg.sender) revert(); //must own the registration to transfer it\n\n\t\t\t\tgoodTypes[typeId].description = description;\n\n\t\t\t\tModifyGoodTypeDescription(msg.sender,description,typeId);\n\n\t\t}\n\n\t\t//modifying existing goods registrations\n\t\tfunction setClaimsEnabled(bool enabled, uint256 typeId) public\n\t\t{\n\t\t\t\tif(!goodTypes[typeId].initialized) revert();\n\t\t\t\tif (goodTypes[typeId].creator != msg.sender) revert(); //must own the registration to transfer it\n\n\t\t\t\tgoodTypes[typeId].claimsEnabled = enabled;\n\n\t\t\t\tModifyClaimsEnable(msg.sender,enabled,typeId);\n\n\t\t}\n\n\t\tfunction setClaimsPrice(uint claimPrice, uint256 typeId) public\n\t\t{\n\t\t\t\tif(!goodTypes[typeId].initialized) revert();\n\t\t\t\tif(goodTypes[typeId].creator != msg.sender) revert(); //must own the registration to transfer it\n        if(claimPrice < 0) revert();\n\n\t\t\t\tgoodTypes[typeId].claimPrice = claimPrice;\n\n\t\t\t\tModifyClaimsPrice(msg.sender,claimPrice,typeId);\n\n\t\t}\n\n\t\tfunction transferRegistration(address to, uint256 typeId) public\n\t\t{\n\t\t\t\tif(!goodTypes[typeId].initialized) revert();\n\t\t\t\tif(goodTypes[typeId].creator != msg.sender) revert(); //must own the registration to transfer it\n\n\t\t\t\tgoodTypes[typeId].creator = to;\n\n\t\t\t\tRegistrationTransfer(msg.sender,to,typeId);\n\n\t\t}\n\n\n\n       //uniqueHash =typeId\n\t\tfunction claimGood(uint256 typeId) public payable\n\t\t{\n\t\t\tif(!goodTypes[typeId].initialized) revert(); //if the good isnt registered\n\t\t\tif(goodTypes[typeId].nextSupplyIndexToSell >= goodTypes[typeId].totalSupply) revert(); // the good is all claimed\n\n      if (msg.value < goodTypes[typeId].claimPrice) revert();\n      if (goodTypes[typeId].claimPrice < 0) revert();\n      if (msg.value < 0) revert();\n      if (goods.exists(typeId, goodTypes[typeId].nextSupplyIndexToSell)) revert();\n\n      string memory metadata;\n\t    goods.claimGoodToken(msg.sender,goods.buildTokenId(typeId,goodTypes[typeId].nextSupplyIndexToSell),metadata);\n\n      //Content creator gets claim eth\n      pendingWithdrawals[goodTypes[typeId].creator] += goodTypes[typeId].claimPrice;\n\n      //refund overspends   CHECK ME FOR BUGS LIKE OVERFLOW\n\n      pendingWithdrawals[goodTypes[typeId].creator] += (msg.value - goodTypes[typeId].claimPrice);\n\n\n\t\t\tClaimGood(msg.sender, typeId, goodTypes[typeId].nextSupplyIndexToSell );\n\n\t\t\tgoodTypes[typeId].nextSupplyIndexToSell++;\n\n\n\t\t}\n\n\n\n\n    function withdrawPendingBalance() public\n    {\n      if( pendingWithdrawals[msg.sender] <= 0 ) revert();\n\n      msg.sender.transfer( pendingWithdrawals[msg.sender] );\n\n      pendingWithdrawals[msg.sender] = 0;\n    }\n\n\n}\n",
  "sourcePath": "/home/andy/dev/ethergoods/contracts/EtherGoods.sol",
  "compiler": {
    "name": "solc",
    "version": "0.4.18+commit.9cf6e910.Emscripten.clang"
  },
  "schemaVersion": "1.0.1",
  "updatedAt": "2018-01-09T20:22:22.207Z"
}