{
  "contractName": "GoodToken",
  "abi": [
    {
      "constant": true,
      "inputs": [],
      "name": "name",
      "outputs": [
        {
          "name": "",
          "type": "string"
        }
      ],
      "payable": false,
      "stateMutability": "view",
      "type": "function"
    },
    {
      "constant": false,
      "inputs": [
        {
          "name": "beneficiary",
          "type": "address"
        },
        {
          "name": "tokenId",
          "type": "uint256"
        }
      ],
      "name": "approve",
      "outputs": [],
      "payable": false,
      "stateMutability": "nonpayable",
      "type": "function"
    },
    {
      "constant": true,
      "inputs": [
        {
          "name": "owner",
          "type": "address"
        }
      ],
      "name": "getAllTokens",
      "outputs": [
        {
          "name": "",
          "type": "uint256[]"
        }
      ],
      "payable": false,
      "stateMutability": "view",
      "type": "function"
    },
    {
      "constant": true,
      "inputs": [],
      "name": "totalSupply",
      "outputs": [
        {
          "name": "",
          "type": "uint256"
        }
      ],
      "payable": false,
      "stateMutability": "view",
      "type": "function"
    },
    {
      "constant": true,
      "inputs": [
        {
          "name": "",
          "type": "uint256"
        }
      ],
      "name": "tokenOwner",
      "outputs": [
        {
          "name": "",
          "type": "address"
        }
      ],
      "payable": false,
      "stateMutability": "view",
      "type": "function"
    },
    {
      "constant": false,
      "inputs": [
        {
          "name": "from",
          "type": "address"
        },
        {
          "name": "to",
          "type": "address"
        },
        {
          "name": "tokenId",
          "type": "uint256"
        }
      ],
      "name": "transferFrom",
      "outputs": [],
      "payable": false,
      "stateMutability": "nonpayable",
      "type": "function"
    },
    {
      "constant": true,
      "inputs": [
        {
          "name": "typeId",
          "type": "uint256"
        },
        {
          "name": "instanceId",
          "type": "uint256"
        }
      ],
      "name": "buildTokenId",
      "outputs": [
        {
          "name": "",
          "type": "uint256"
        }
      ],
      "payable": false,
      "stateMutability": "pure",
      "type": "function"
    },
    {
      "constant": false,
      "inputs": [
        {
          "name": "tokenId",
          "type": "uint256"
        },
        {
          "name": "_metadata",
          "type": "string"
        }
      ],
      "name": "updateTokenMetadata",
      "outputs": [],
      "payable": false,
      "stateMutability": "nonpayable",
      "type": "function"
    },
    {
      "constant": true,
      "inputs": [
        {
          "name": "owner",
          "type": "address"
        },
        {
          "name": "index",
          "type": "uint256"
        }
      ],
      "name": "tokenOfOwnerByIndex",
      "outputs": [
        {
          "name": "",
          "type": "uint256"
        }
      ],
      "payable": false,
      "stateMutability": "view",
      "type": "function"
    },
    {
      "constant": true,
      "inputs": [
        {
          "name": "typeId",
          "type": "uint256"
        },
        {
          "name": "instanceId",
          "type": "uint256"
        }
      ],
      "name": "ownerOfToken",
      "outputs": [
        {
          "name": "",
          "type": "address"
        }
      ],
      "payable": false,
      "stateMutability": "view",
      "type": "function"
    },
    {
      "constant": true,
      "inputs": [
        {
          "name": "typeId",
          "type": "uint256"
        },
        {
          "name": "instanceId",
          "type": "uint256"
        }
      ],
      "name": "goodMetadata",
      "outputs": [
        {
          "name": "",
          "type": "string"
        }
      ],
      "payable": false,
      "stateMutability": "view",
      "type": "function"
    },
    {
      "constant": true,
      "inputs": [
        {
          "name": "typeId",
          "type": "uint256"
        },
        {
          "name": "instanceId",
          "type": "uint256"
        }
      ],
      "name": "exists",
      "outputs": [
        {
          "name": "",
          "type": "bool"
        }
      ],
      "payable": false,
      "stateMutability": "view",
      "type": "function"
    },
    {
      "constant": true,
      "inputs": [
        {
          "name": "tokenId",
          "type": "uint256"
        }
      ],
      "name": "ownerOf",
      "outputs": [
        {
          "name": "",
          "type": "address"
        }
      ],
      "payable": false,
      "stateMutability": "view",
      "type": "function"
    },
    {
      "constant": true,
      "inputs": [
        {
          "name": "tokenId",
          "type": "uint256"
        }
      ],
      "name": "tokenMetadata",
      "outputs": [
        {
          "name": "",
          "type": "string"
        }
      ],
      "payable": false,
      "stateMutability": "view",
      "type": "function"
    },
    {
      "constant": true,
      "inputs": [
        {
          "name": "owner",
          "type": "address"
        }
      ],
      "name": "balanceOf",
      "outputs": [
        {
          "name": "",
          "type": "uint256"
        }
      ],
      "payable": false,
      "stateMutability": "view",
      "type": "function"
    },
    {
      "constant": true,
      "inputs": [],
      "name": "totalTokens",
      "outputs": [
        {
          "name": "",
          "type": "uint256"
        }
      ],
      "payable": false,
      "stateMutability": "view",
      "type": "function"
    },
    {
      "constant": true,
      "inputs": [],
      "name": "owner",
      "outputs": [
        {
          "name": "",
          "type": "address"
        }
      ],
      "payable": false,
      "stateMutability": "view",
      "type": "function"
    },
    {
      "constant": true,
      "inputs": [],
      "name": "symbol",
      "outputs": [
        {
          "name": "",
          "type": "string"
        }
      ],
      "payable": false,
      "stateMutability": "view",
      "type": "function"
    },
    {
      "constant": true,
      "inputs": [
        {
          "name": "",
          "type": "uint256"
        }
      ],
      "name": "allowedTransfer",
      "outputs": [
        {
          "name": "",
          "type": "address"
        }
      ],
      "payable": false,
      "stateMutability": "view",
      "type": "function"
    },
    {
      "constant": false,
      "inputs": [
        {
          "name": "to",
          "type": "address"
        },
        {
          "name": "tokenId",
          "type": "uint256"
        }
      ],
      "name": "transfer",
      "outputs": [],
      "payable": false,
      "stateMutability": "nonpayable",
      "type": "function"
    },
    {
      "constant": true,
      "inputs": [
        {
          "name": "",
          "type": "uint256"
        }
      ],
      "name": "_tokenMetadata",
      "outputs": [
        {
          "name": "",
          "type": "string"
        }
      ],
      "payable": false,
      "stateMutability": "view",
      "type": "function"
    },
    {
      "constant": false,
      "inputs": [
        {
          "name": "tokenId",
          "type": "uint256"
        }
      ],
      "name": "takeOwnership",
      "outputs": [],
      "payable": false,
      "stateMutability": "nonpayable",
      "type": "function"
    },
    {
      "constant": true,
      "inputs": [
        {
          "name": "",
          "type": "address"
        },
        {
          "name": "",
          "type": "uint256"
        }
      ],
      "name": "ownedTokens",
      "outputs": [
        {
          "name": "",
          "type": "uint256"
        }
      ],
      "payable": false,
      "stateMutability": "view",
      "type": "function"
    },
    {
      "constant": true,
      "inputs": [
        {
          "name": "tokenId",
          "type": "uint256"
        }
      ],
      "name": "metadata",
      "outputs": [
        {
          "name": "",
          "type": "string"
        }
      ],
      "payable": false,
      "stateMutability": "view",
      "type": "function"
    },
    {
      "constant": false,
      "inputs": [
        {
          "name": "beneficiary",
          "type": "address"
        },
        {
          "name": "tokenId",
          "type": "uint256"
        },
        {
          "name": "_metadata",
          "type": "string"
        }
      ],
      "name": "claimGoodToken",
      "outputs": [],
      "payable": false,
      "stateMutability": "nonpayable",
      "type": "function"
    },
    {
      "constant": false,
      "inputs": [
        {
          "name": "newOwner",
          "type": "address"
        }
      ],
      "name": "transferOwnership",
      "outputs": [],
      "payable": false,
      "stateMutability": "nonpayable",
      "type": "function"
    },
    {
      "anonymous": false,
      "inputs": [
        {
          "indexed": false,
          "name": "tokenId",
          "type": "uint256"
        },
        {
          "indexed": false,
          "name": "owner",
          "type": "address"
        },
        {
          "indexed": false,
          "name": "metadata",
          "type": "string"
        }
      ],
      "name": "Created",
      "type": "event"
    },
    {
      "anonymous": false,
      "inputs": [
        {
          "indexed": false,
          "name": "tokenId",
          "type": "uint256"
        },
        {
          "indexed": false,
          "name": "owner",
          "type": "address"
        }
      ],
      "name": "Destroyed",
      "type": "event"
    },
    {
      "anonymous": false,
      "inputs": [
        {
          "indexed": false,
          "name": "tokenId",
          "type": "uint256"
        },
        {
          "indexed": false,
          "name": "from",
          "type": "address"
        },
        {
          "indexed": false,
          "name": "to",
          "type": "address"
        }
      ],
      "name": "Transferred",
      "type": "event"
    },
    {
      "anonymous": false,
      "inputs": [
        {
          "indexed": false,
          "name": "owner",
          "type": "address"
        },
        {
          "indexed": false,
          "name": "beneficiary",
          "type": "address"
        },
        {
          "indexed": false,
          "name": "tokenId",
          "type": "uint256"
        }
      ],
      "name": "Approval",
      "type": "event"
    },
    {
      "anonymous": false,
      "inputs": [
        {
          "indexed": false,
          "name": "tokenId",
          "type": "uint256"
        },
        {
          "indexed": false,
          "name": "owner",
          "type": "address"
        },
        {
          "indexed": false,
          "name": "data",
          "type": "string"
        }
      ],
      "name": "MetadataUpdated",
      "type": "event"
    },
    {
      "anonymous": false,
      "inputs": [
        {
          "indexed": true,
          "name": "previousOwner",
          "type": "address"
        },
        {
          "indexed": true,
          "name": "newOwner",
          "type": "address"
        }
      ],
      "name": "OwnershipTransferred",
      "type": "event"
    }
  ],
  "bytecode": "0x60606040526040805190810160405280601081526020017f4574686572676f6f647320417373657400000000000000000000000000000000815250600c908051906020019062000051929190620000e6565b506040805190810160405280600481526020017f474f4f4400000000000000000000000000000000000000000000000000000000815250600d90805190602001906200009f929190620000e6565b50336000806101000a81548173ffffffffffffffffffffffffffffffffffffffff021916908373ffffffffffffffffffffffffffffffffffffffff16021790555062000195565b828054600181600116156101000203166002900490600052602060002090601f016020900481019282601f106200012957805160ff19168380011785556200015a565b828001600101855582156200015a579182015b82811115620001595782518255916020019190600101906200013c565b5b5090506200016991906200016d565b5090565b6200019291905b808211156200018e57600081600090555060010162000174565b5090565b90565b6123ed80620001a56000396000f300606060405260043610610154576000357c0100000000000000000000000000000000000000000000000000000000900463ffffffff16806306fdde0314610159578063095ea7b3146101e7578063178b6de61461022957806318160ddd146102b75780631caaa487146102e057806323b872dd1461034357806326b47687146103a45780632cb2f52e146103e45780632f745c591461044a57806338e58d99146104a0578063495739ae1461050c578063579394f2146105b15780636352211e146105f55780636914db601461065857806370a08231146106f45780637e1c0c09146107415780638da5cb5b1461076a57806395d89b41146107bf578063a6832d531461084d578063a9059cbb146108b0578063ae6a70ee146108f2578063b2e6ceeb1461098e578063e149f036146109b1578063e3684e3914610a07578063f096850d14610aa3578063f2fde38b14610b28575b600080fd5b341561016457600080fd5b61016c610b61565b6040518080602001828103825283818151815260200191508051906020019080838360005b838110156101ac578082015181840152602081019050610191565b50505050905090810190601f1680156101d95780820380516001836020036101000a031916815260200191505b509250505060405180910390f35b34156101f257600080fd5b610227600480803573ffffffffffffffffffffffffffffffffffffffff16906020019091908035906020019091905050610bff565b005b341561023457600080fd5b610260600480803573ffffffffffffffffffffffffffffffffffffffff16906020019091905050610e3b565b6040518080602001828103825283818151815260200191508051906020019060200280838360005b838110156102a3578082015181840152602081019050610288565b505050509050019250505060405180910390f35b34156102c257600080fd5b6102ca610f4b565b6040518082815260200191505060405180910390f35b34156102eb57600080fd5b6103016004808035906020019091905050610f55565b604051808273ffffffffffffffffffffffffffffffffffffffff1673ffffffffffffffffffffffffffffffffffffffff16815260200191505060405180910390f35b341561034e57600080fd5b6103a2600480803573ffffffffffffffffffffffffffffffffffffffff1690602001909190803573ffffffffffffffffffffffffffffffffffffffff16906020019091908035906020019091905050610f88565b005b34156103af57600080fd5b6103ce60048080359060200190919080359060200190919050506110a5565b6040518082815260200191505060405180910390f35b34156103ef57600080fd5b610448600480803590602001909190803590602001908201803590602001908080601f016020809104026020016040519081016040528093929190818152602001838380828437820191505050505050919050506110f9565b005b341561045557600080fd5b61048a600480803573ffffffffffffffffffffffffffffffffffffffff1690602001909190803590602001909190505061126a565b6040518082815260200191505060405180910390f35b34156104ab57600080fd5b6104ca60048080359060200190919080359060200190919050506112ee565b604051808273ffffffffffffffffffffffffffffffffffffffff1673ffffffffffffffffffffffffffffffffffffffff16815260200191505060405180910390f35b341561051757600080fd5b6105366004808035906020019091908035906020019091905050611335565b6040518080602001828103825283818151815260200191508051906020019080838360005b8381101561057657808201518184015260208101905061055b565b50505050905090810190601f1680156105a35780820380516001836020036101000a031916815260200191505b509250505060405180910390f35b34156105bc57600080fd5b6105db60048080359060200190919080359060200190919050506113fa565b604051808215151515815260200191505060405180910390f35b341561060057600080fd5b6106166004808035906020019091905050611427565b604051808273ffffffffffffffffffffffffffffffffffffffff1673ffffffffffffffffffffffffffffffffffffffff16815260200191505060405180910390f35b341561066357600080fd5b6106796004808035906020019091905050611464565b6040518080602001828103825283818151815260200191508051906020019080838360005b838110156106b957808201518184015260208101905061069e565b50505050905090810190601f1680156106e65780820380516001836020036101000a031916815260200191505b509250505060405180910390f35b34156106ff57600080fd5b61072b600480803573ffffffffffffffffffffffffffffffffffffffff1690602001909190505061151f565b6040518082815260200191505060405180910390f35b341561074c57600080fd5b610754611568565b6040518082815260200191505060405180910390f35b341561077557600080fd5b61077d61156e565b604051808273ffffffffffffffffffffffffffffffffffffffff1673ffffffffffffffffffffffffffffffffffffffff16815260200191505060405180910390f35b34156107ca57600080fd5b6107d2611593565b6040518080602001828103825283818151815260200191508051906020019080838360005b838110156108125780820151818401526020810190506107f7565b50505050905090810190601f16801561083f5780820380516001836020036101000a031916815260200191505b509250505060405180910390f35b341561085857600080fd5b61086e6004808035906020019091905050611631565b604051808273ffffffffffffffffffffffffffffffffffffffff1673ffffffffffffffffffffffffffffffffffffffff16815260200191505060405180910390f35b34156108bb57600080fd5b6108f0600480803573ffffffffffffffffffffffffffffffffffffffff16906020019091908035906020019091905050611664565b005b34156108fd57600080fd5b6109136004808035906020019091905050611713565b6040518080602001828103825283818151815260200191508051906020019080838360005b83811015610953578082015181840152602081019050610938565b50505050905090810190601f1680156109805780820380516001836020036101000a031916815260200191505b509250505060405180910390f35b341561099957600080fd5b6109af60048080359060200190919050506117c3565b005b34156109bc57600080fd5b6109f1600480803573ffffffffffffffffffffffffffffffffffffffff16906020019091908035906020019091905050611871565b6040518082815260200191505060405180910390f35b3415610a1257600080fd5b610a2860048080359060200190919050506118a2565b6040518080602001828103825283818151815260200191508051906020019080838360005b83811015610a68578082015181840152602081019050610a4d565b50505050905090810190601f168015610a955780820380516001836020036101000a031916815260200191505b509250505060405180910390f35b3415610aae57600080fd5b610b26600480803573ffffffffffffffffffffffffffffffffffffffff1690602001909190803590602001909190803590602001908201803590602001908080601f0160208091040260200160405190810160405280939291908181526020018383808284378201915050505050509190505061195d565b005b3415610b3357600080fd5b610b5f600480803573ffffffffffffffffffffffffffffffffffffffff16906020019091905050611a20565b005b600c8054600181600116156101000203166002900480601f016020809104026020016040519081016040528092919081815260200182805460018160011615610100020316600290048015610bf75780601f10610bcc57610100808354040283529160200191610bf7565b820191906000526020600020905b815481529060010190602001808311610bda57829003601f168201915b505050505081565b6005600082815260200190815260200160002060009054906101000a900473ffffffffffffffffffffffffffffffffffffffff1673ffffffffffffffffffffffffffffffffffffffff163373ffffffffffffffffffffffffffffffffffffffff16141515610c6c57600080fd5b60006006600083815260200190815260200160002060009054906101000a900473ffffffffffffffffffffffffffffffffffffffff1673ffffffffffffffffffffffffffffffffffffffff16141515610d135760006006600083815260200190815260200160002060006101000a81548173ffffffffffffffffffffffffffffffffffffffff021916908373ffffffffffffffffffffffffffffffffffffffff1602179055505b816006600083815260200190815260200160002060006101000a81548173ffffffffffffffffffffffffffffffffffffffff021916908373ffffffffffffffffffffffffffffffffffffffff1602179055507f8c5be1e5ebec7d5bd14f71427d1e84f3dd0314c0f7b2291e5b200ac8c7c3b9256005600083815260200190815260200160002060009054906101000a900473ffffffffffffffffffffffffffffffffffffffff168383604051808473ffffffffffffffffffffffffffffffffffffffff1673ffffffffffffffffffffffffffffffffffffffff1681526020018373ffffffffffffffffffffffffffffffffffffffff1673ffffffffffffffffffffffffffffffffffffffff168152602001828152602001935050505060405180910390a15050565b610e436122c8565b6000610e4d6122c8565b6000600360008673ffffffffffffffffffffffffffffffffffffffff1673ffffffffffffffffffffffffffffffffffffffff16815260200190815260200160002054925082604051805910610e9f5750595b90808252806020026020018201604052509150600090505b82811015610f4057600260008673ffffffffffffffffffffffffffffffffffffffff1673ffffffffffffffffffffffffffffffffffffffff16815260200190815260200160002081815481101515610f0b57fe5b9060005260206000209001548282815181101515610f2557fe5b90602001906020020181815250508080600101915050610eb7565b819350505050919050565b6000600154905090565b60056020528060005260406000206000915054906101000a900473ffffffffffffffffffffffffffffffffffffffff1681565b8273ffffffffffffffffffffffffffffffffffffffff166005600083815260200190815260200160002060009054906101000a900473ffffffffffffffffffffffffffffffffffffffff1673ffffffffffffffffffffffffffffffffffffffff16141515610ff557600080fd5b3373ffffffffffffffffffffffffffffffffffffffff166006600083815260200190815260200160002060009054906101000a900473ffffffffffffffffffffffffffffffffffffffff1673ffffffffffffffffffffffffffffffffffffffff1614151561106257600080fd5b6110a06005600083815260200190815260200160002060009054906101000a900473ffffffffffffffffffffffffffffffffffffffff168383611b75565b505050565b6000828260405180838152602001807f7c0000000000000000000000000000000000000000000000000000000000000081525060010182815260200192505050604051809103902060019004905092915050565b6005600083815260200190815260200160002060009054906101000a900473ffffffffffffffffffffffffffffffffffffffff1673ffffffffffffffffffffffffffffffffffffffff163373ffffffffffffffffffffffffffffffffffffffff1614151561116657600080fd5b8060076000848152602001908152602001600020908051906020019061118d9291906122dc565b507f6406605b3a91832e56f26099621898b4588e904f56001d608a6b616030060eda823383604051808481526020018373ffffffffffffffffffffffffffffffffffffffff1673ffffffffffffffffffffffffffffffffffffffff16815260200180602001828103825283818151815260200191508051906020019080838360005b8381101561122a57808201518184015260208101905061120f565b50505050905090810190601f1680156112575780820380516001836020036101000a031916815260200191505b5094505050505060405180910390a15050565b600080821015801561128357506112808361151f565b82105b151561128e57600080fd5b600260008473ffffffffffffffffffffffffffffffffffffffff1673ffffffffffffffffffffffffffffffffffffffff168152602001908152602001600020828154811015156112da57fe5b906000526020600020900154905092915050565b6000600560006112fe85856110a5565b815260200190815260200160002060009054906101000a900473ffffffffffffffffffffffffffffffffffffffff16905092915050565b61133d61235c565b6007600061134b85856110a5565b81526020019081526020016000208054600181600116156101000203166002900480601f0160208091040260200160405190810160405280929190818152602001828054600181600116156101000203166002900480156113ed5780601f106113c2576101008083540402835291602001916113ed565b820191906000526020600020905b8154815290600101906020018083116113d057829003601f168201915b5050505050905092915050565b60008061140784846112ee565b73ffffffffffffffffffffffffffffffffffffffff161415905092915050565b60006005600083815260200190815260200160002060009054906101000a900473ffffffffffffffffffffffffffffffffffffffff169050919050565b61146c61235c565b600760008381526020019081526020016000208054600181600116156101000203166002900480601f0160208091040260200160405190810160405280929190818152602001828054600181600116156101000203166002900480156115135780601f106114e857610100808354040283529160200191611513565b820191906000526020600020905b8154815290600101906020018083116114f657829003601f168201915b50505050509050919050565b6000600360008373ffffffffffffffffffffffffffffffffffffffff1673ffffffffffffffffffffffffffffffffffffffff168152602001908152602001600020549050919050565b60015481565b6000809054906101000a900473ffffffffffffffffffffffffffffffffffffffff1681565b600d8054600181600116156101000203166002900480601f0160208091040260200160405190810160405280929190818152602001828054600181600116156101000203166002900480156116295780601f106115fe57610100808354040283529160200191611629565b820191906000526020600020905b81548152906001019060200180831161160c57829003601f168201915b505050505081565b60066020528060005260406000206000915054906101000a900473ffffffffffffffffffffffffffffffffffffffff1681565b3373ffffffffffffffffffffffffffffffffffffffff166005600083815260200190815260200160002060009054906101000a900473ffffffffffffffffffffffffffffffffffffffff1673ffffffffffffffffffffffffffffffffffffffff161415156116d157600080fd5b61170f6005600083815260200190815260200160002060009054906101000a900473ffffffffffffffffffffffffffffffffffffffff168383611b75565b5050565b60076020528060005260406000206000915090508054600181600116156101000203166002900480601f0160208091040260200160405190810160405280929190818152602001828054600181600116156101000203166002900480156117bb5780601f10611790576101008083540402835291602001916117bb565b820191906000526020600020905b81548152906001019060200180831161179e57829003601f168201915b505050505081565b3373ffffffffffffffffffffffffffffffffffffffff166006600083815260200190815260200160002060009054906101000a900473ffffffffffffffffffffffffffffffffffffffff1673ffffffffffffffffffffffffffffffffffffffff1614151561183057600080fd5b61186e6005600083815260200190815260200160002060009054906101000a900473ffffffffffffffffffffffffffffffffffffffff163383611b75565b50565b60026020528160005260406000208181548110151561188c57fe5b9060005260206000209001600091509150505481565b6118aa61235c565b600760008381526020019081526020016000208054600181600116156101000203166002900480601f0160208091040260200160405190810160405280929190818152602001828054600181600116156101000203166002900480156119515780601f1061192657610100808354040283529160200191611951565b820191906000526020600020905b81548152906001019060200180831161193457829003601f168201915b50505050509050919050565b6000809054906101000a900473ffffffffffffffffffffffffffffffffffffffff1673ffffffffffffffffffffffffffffffffffffffff163373ffffffffffffffffffffffffffffffffffffffff161415156119b857600080fd5b60006005600084815260200190815260200160002060009054906101000a900473ffffffffffffffffffffffffffffffffffffffff1673ffffffffffffffffffffffffffffffffffffffff16141515611a1057600080fd5b611a1b838383611c36565b505050565b6000809054906101000a900473ffffffffffffffffffffffffffffffffffffffff1673ffffffffffffffffffffffffffffffffffffffff163373ffffffffffffffffffffffffffffffffffffffff16141515611a7b57600080fd5b600073ffffffffffffffffffffffffffffffffffffffff168173ffffffffffffffffffffffffffffffffffffffff1614151515611ab757600080fd5b8073ffffffffffffffffffffffffffffffffffffffff166000809054906101000a900473ffffffffffffffffffffffffffffffffffffffff1673ffffffffffffffffffffffffffffffffffffffff167f8be0079c531659141344cd1fd0a4f28419497f9722a3daafe3b4186f6b6457e060405160405180910390a3806000806101000a81548173ffffffffffffffffffffffffffffffffffffffff021916908373ffffffffffffffffffffffffffffffffffffffff16021790555050565b611b7e81611d57565b611b888382611e6a565b611b92828261203c565b7f0ea8df787dde63a7bdc34d17097adf25749a3521f660e92dabdff8d6ee91d18a818484604051808481526020018373ffffffffffffffffffffffffffffffffffffffff1673ffffffffffffffffffffffffffffffffffffffff1681526020018273ffffffffffffffffffffffffffffffffffffffff1673ffffffffffffffffffffffffffffffffffffffff168152602001935050505060405180910390a1505050565b611c40838361203c565b60016000815480929190600101919050555080600760008481526020019081526020016000209080519060200190611c799291906122dc565b507fa8aa44d4c04f6a42cbcb3e9422cced663c11b9662445100f1d09c3dd39b2c763828483604051808481526020018373ffffffffffffffffffffffffffffffffffffffff1673ffffffffffffffffffffffffffffffffffffffff16815260200180602001828103825283818151815260200191508051906020019080838360005b83811015611d16578082015181840152602081019050611cfb565b50505050905090810190601f168015611d435780820380516001836020036101000a031916815260200191505b5094505050505060405180910390a1505050565b60006006600083815260200190815260200160002060006101000a81548173ffffffffffffffffffffffffffffffffffffffff021916908373ffffffffffffffffffffffffffffffffffffffff1602179055507f8c5be1e5ebec7d5bd14f71427d1e84f3dd0314c0f7b2291e5b200ac8c7c3b9256005600083815260200190815260200160002060009054906101000a900473ffffffffffffffffffffffffffffffffffffffff16600083604051808473ffffffffffffffffffffffffffffffffffffffff1673ffffffffffffffffffffffffffffffffffffffff1681526020018373ffffffffffffffffffffffffffffffffffffffff168152602001828152602001935050505060405180910390a150565b600080600080600360008773ffffffffffffffffffffffffffffffffffffffff1673ffffffffffffffffffffffffffffffffffffffff16815260200190815260200160002054111515611ebc57600080fd5b600360008673ffffffffffffffffffffffffffffffffffffffff1673ffffffffffffffffffffffffffffffffffffffff16815260200190815260200160002054925060046000858152602001908152602001600020549150600260008673ffffffffffffffffffffffffffffffffffffffff1673ffffffffffffffffffffffffffffffffffffffff16815260200190815260200160002060018403815481101515611f6357fe5b906000526020600020900154905080600260008773ffffffffffffffffffffffffffffffffffffffff1673ffffffffffffffffffffffffffffffffffffffff16815260200190815260200160002083815481101515611fbe57fe5b906000526020600020900181905550816004600083815260200190815260200160002081905550600360008673ffffffffffffffffffffffffffffffffffffffff1673ffffffffffffffffffffffffffffffffffffffff16815260200190815260200160002060008154809291906001900391905055505050505050565b600360008373ffffffffffffffffffffffffffffffffffffffff1673ffffffffffffffffffffffffffffffffffffffff16815260200190815260200160002054600260008473ffffffffffffffffffffffffffffffffffffffff1673ffffffffffffffffffffffffffffffffffffffff16815260200190815260200160002080549050141561213057600260008373ffffffffffffffffffffffffffffffffffffffff1673ffffffffffffffffffffffffffffffffffffffff16815260200190815260200160002080548060010182816121169190612370565b9160005260206000209001600083909190915055506121cc565b80600260008473ffffffffffffffffffffffffffffffffffffffff1673ffffffffffffffffffffffffffffffffffffffff168152602001908152602001600020600360008573ffffffffffffffffffffffffffffffffffffffff1673ffffffffffffffffffffffffffffffffffffffff168152602001908152602001600020548154811015156121bc57fe5b9060005260206000209001819055505b816005600083815260200190815260200160002060006101000a81548173ffffffffffffffffffffffffffffffffffffffff021916908373ffffffffffffffffffffffffffffffffffffffff160217905550600360008373ffffffffffffffffffffffffffffffffffffffff1673ffffffffffffffffffffffffffffffffffffffff168152602001908152602001600020546004600083815260200190815260200160002081905550600360008373ffffffffffffffffffffffffffffffffffffffff1673ffffffffffffffffffffffffffffffffffffffff168152602001908152602001600020600081548092919060010191905055505050565b602060405190810160405280600081525090565b828054600181600116156101000203166002900490600052602060002090601f016020900481019282601f1061231d57805160ff191683800117855561234b565b8280016001018555821561234b579182015b8281111561234a57825182559160200191906001019061232f565b5b509050612358919061239c565b5090565b602060405190810160405280600081525090565b81548183558181151161239757818360005260206000209182019101612396919061239c565b5b505050565b6123be91905b808211156123ba5760008160009055506001016123a2565b5090565b905600a165627a7a723058200ef67b5509327fd6982f8832ec699759af529b4f6ee5a124137f6fffe4a76d9c0029",
  "source": "pragma solidity ^0.4.8;\nimport './Ownable.sol';\nimport './BasicNFT.sol';\n\n// SEE https://github.com/decentraland/land/tree/master/contracts\n\n\n\ncontract GoodToken is Ownable, BasicNFT {\n    bytes32 uniqueHash; //the id of the asset instance\n    address owner;\n    bytes32 typeCreationHash;\n    bool initialized;\n\n    string public name = 'Ethergoods Asset';\n    string public symbol = 'GOOD';\n\n\n    //similar to LAND but X is the goodType and Y is the instanceId of the token\n\n\n    function claimGoodToken(address beneficiary, uint tokenId, string _metadata) onlyOwner public {\n       require(tokenOwner[tokenId] == 0);\n       _claimNewToken(beneficiary, tokenId, _metadata);\n     }\n\n     function _claimNewToken(address beneficiary, uint tokenId, string _metadata) internal {\n        //latestPing[tokenId] = now;\n        _addTokenTo(beneficiary, tokenId);\n        totalTokens++;\n        _tokenMetadata[tokenId] = _metadata;\n\n        Created(tokenId, beneficiary, _metadata);\n      }\n\n    function goodMetadata(uint typeId, uint instanceId) constant public returns (string) {\n        return _tokenMetadata[buildTokenId(typeId,instanceId)];\n    }\n\n    function buildTokenId(uint typeId, uint instanceId) public pure returns (uint256) {\n      return uint256(keccak256(typeId, '|', instanceId));\n    }\n\n    function exists(uint typeId, uint instanceId) public constant returns (bool) {\n       return ownerOfToken(typeId,instanceId) != 0;\n     }\n\n     function ownerOfToken(uint typeId, uint instanceId) public constant returns (address) {\n       return tokenOwner[buildTokenId(typeId,instanceId)];\n     }\n\n}\n",
  "sourcePath": "/home/andy/dev/ethergoods/contracts/GOODToken.sol",
  "compiler": {
    "name": "solc",
    "version": "0.4.18+commit.9cf6e910.Emscripten.clang"
  },
  "schemaVersion": "1.0.1",
  "updatedAt": "2018-01-09T21:40:16.918Z"
}